{
  "contractName": "FiubaSticker",
  "abi": [
    {
      "inputs": [],
      "stateMutability": "nonpayable",
      "type": "constructor"
    },
    {
      "anonymous": false,
      "inputs": [
        {
          "indexed": true,
          "internalType": "address",
          "name": "owner",
          "type": "address"
        },
        {
          "indexed": true,
          "internalType": "address",
          "name": "approved",
          "type": "address"
        },
        {
          "indexed": true,
          "internalType": "uint256",
          "name": "tokenId",
          "type": "uint256"
        }
      ],
      "name": "Approval",
      "type": "event"
    },
    {
      "anonymous": false,
      "inputs": [
        {
          "indexed": true,
          "internalType": "address",
          "name": "owner",
          "type": "address"
        },
        {
          "indexed": true,
          "internalType": "address",
          "name": "operator",
          "type": "address"
        },
        {
          "indexed": false,
          "internalType": "bool",
          "name": "approved",
          "type": "bool"
        }
      ],
      "name": "ApprovalForAll",
      "type": "event"
    },
    {
      "anonymous": false,
      "inputs": [
        {
          "indexed": true,
          "internalType": "address",
          "name": "previousOwner",
          "type": "address"
        },
        {
          "indexed": true,
          "internalType": "address",
          "name": "newOwner",
          "type": "address"
        }
      ],
      "name": "OwnershipTransferred",
      "type": "event"
    },
    {
      "anonymous": false,
      "inputs": [
        {
          "indexed": true,
          "internalType": "address",
          "name": "from",
          "type": "address"
        },
        {
          "indexed": true,
          "internalType": "address",
          "name": "to",
          "type": "address"
        },
        {
          "indexed": true,
          "internalType": "uint256",
          "name": "tokenId",
          "type": "uint256"
        }
      ],
      "name": "Transfer",
      "type": "event"
    },
    {
      "inputs": [],
      "name": "URI",
      "outputs": [
        {
          "internalType": "string",
          "name": "",
          "type": "string"
        }
      ],
      "stateMutability": "view",
      "type": "function",
      "constant": true
    },
    {
      "inputs": [
        {
          "internalType": "address",
          "name": "to",
          "type": "address"
        },
        {
          "internalType": "uint256",
          "name": "tokenId",
          "type": "uint256"
        }
      ],
      "name": "approve",
      "outputs": [],
      "stateMutability": "nonpayable",
      "type": "function"
    },
    {
      "inputs": [
        {
          "internalType": "address",
          "name": "owner",
          "type": "address"
        }
      ],
      "name": "balanceOf",
      "outputs": [
        {
          "internalType": "uint256",
          "name": "",
          "type": "uint256"
        }
      ],
      "stateMutability": "view",
      "type": "function",
      "constant": true
    },
    {
      "inputs": [
        {
          "internalType": "uint256",
          "name": "tokenId",
          "type": "uint256"
        }
      ],
      "name": "getApproved",
      "outputs": [
        {
          "internalType": "address",
          "name": "",
          "type": "address"
        }
      ],
      "stateMutability": "view",
      "type": "function",
      "constant": true
    },
    {
      "inputs": [
        {
          "internalType": "address",
          "name": "owner",
          "type": "address"
        },
        {
          "internalType": "address",
          "name": "operator",
          "type": "address"
        }
      ],
      "name": "isApprovedForAll",
      "outputs": [
        {
          "internalType": "bool",
          "name": "",
          "type": "bool"
        }
      ],
      "stateMutability": "view",
      "type": "function",
      "constant": true
    },
    {
      "inputs": [],
      "name": "mintPrice",
      "outputs": [
        {
          "internalType": "uint256",
          "name": "",
          "type": "uint256"
        }
      ],
      "stateMutability": "view",
      "type": "function",
      "constant": true
    },
    {
      "inputs": [],
      "name": "name",
      "outputs": [
        {
          "internalType": "string",
          "name": "",
          "type": "string"
        }
      ],
      "stateMutability": "view",
      "type": "function",
      "constant": true
    },
    {
      "inputs": [],
      "name": "owner",
      "outputs": [
        {
          "internalType": "address",
          "name": "",
          "type": "address"
        }
      ],
      "stateMutability": "view",
      "type": "function",
      "constant": true
    },
    {
      "inputs": [
        {
          "internalType": "uint256",
          "name": "tokenId",
          "type": "uint256"
        }
      ],
      "name": "ownerOf",
      "outputs": [
        {
          "internalType": "address",
          "name": "",
          "type": "address"
        }
      ],
      "stateMutability": "view",
      "type": "function",
      "constant": true
    },
    {
      "inputs": [
        {
          "internalType": "uint256",
          "name": "",
          "type": "uint256"
        }
      ],
      "name": "playerToURI",
      "outputs": [
        {
          "internalType": "string",
          "name": "",
          "type": "string"
        }
      ],
      "stateMutability": "view",
      "type": "function",
      "constant": true
    },
    {
      "inputs": [],
      "name": "renounceOwnership",
      "outputs": [],
      "stateMutability": "nonpayable",
      "type": "function"
    },
    {
      "inputs": [
        {
          "internalType": "address",
          "name": "from",
          "type": "address"
        },
        {
          "internalType": "address",
          "name": "to",
          "type": "address"
        },
        {
          "internalType": "uint256",
          "name": "tokenId",
          "type": "uint256"
        }
      ],
      "name": "safeTransferFrom",
      "outputs": [],
      "stateMutability": "nonpayable",
      "type": "function"
    },
    {
      "inputs": [
        {
          "internalType": "address",
          "name": "from",
          "type": "address"
        },
        {
          "internalType": "address",
          "name": "to",
          "type": "address"
        },
        {
          "internalType": "uint256",
          "name": "tokenId",
          "type": "uint256"
        },
        {
          "internalType": "bytes",
          "name": "data",
          "type": "bytes"
        }
      ],
      "name": "safeTransferFrom",
      "outputs": [],
      "stateMutability": "nonpayable",
      "type": "function"
    },
    {
      "inputs": [
        {
          "internalType": "address",
          "name": "operator",
          "type": "address"
        },
        {
          "internalType": "bool",
          "name": "approved",
          "type": "bool"
        }
      ],
      "name": "setApprovalForAll",
      "outputs": [],
      "stateMutability": "nonpayable",
      "type": "function"
    },
    {
      "inputs": [
        {
          "internalType": "uint256",
          "name": "",
          "type": "uint256"
        }
      ],
      "name": "stickerToPlayer",
      "outputs": [
        {
          "internalType": "uint256",
          "name": "",
          "type": "uint256"
        }
      ],
      "stateMutability": "view",
      "type": "function",
      "constant": true
    },
    {
      "inputs": [
        {
          "internalType": "bytes4",
          "name": "interfaceId",
          "type": "bytes4"
        }
      ],
      "name": "supportsInterface",
      "outputs": [
        {
          "internalType": "bool",
          "name": "",
          "type": "bool"
        }
      ],
      "stateMutability": "view",
      "type": "function",
      "constant": true
    },
    {
      "inputs": [],
      "name": "symbol",
      "outputs": [
        {
          "internalType": "string",
          "name": "",
          "type": "string"
        }
      ],
      "stateMutability": "view",
      "type": "function",
      "constant": true
    },
    {
      "inputs": [
        {
          "internalType": "uint256",
          "name": "tokenId",
          "type": "uint256"
        }
      ],
      "name": "tokenURI",
      "outputs": [
        {
          "internalType": "string",
          "name": "",
          "type": "string"
        }
      ],
      "stateMutability": "view",
      "type": "function",
      "constant": true
    },
    {
      "inputs": [],
      "name": "totalMints",
      "outputs": [
        {
          "internalType": "uint256",
          "name": "",
          "type": "uint256"
        }
      ],
      "stateMutability": "view",
      "type": "function",
      "constant": true
    },
    {
      "inputs": [
        {
          "internalType": "address",
          "name": "from",
          "type": "address"
        },
        {
          "internalType": "address",
          "name": "to",
          "type": "address"
        },
        {
          "internalType": "uint256",
          "name": "tokenId",
          "type": "uint256"
        }
      ],
      "name": "transferFrom",
      "outputs": [],
      "stateMutability": "nonpayable",
      "type": "function"
    },
    {
      "inputs": [
        {
          "internalType": "address",
          "name": "newOwner",
          "type": "address"
        }
      ],
      "name": "transferOwnership",
      "outputs": [],
      "stateMutability": "nonpayable",
      "type": "function"
    },
    {
      "inputs": [
        {
          "internalType": "address",
          "name": "newPackageAddress",
          "type": "address"
        }
      ],
      "name": "setPackageAddress",
      "outputs": [],
      "stateMutability": "nonpayable",
      "type": "function"
    },
    {
      "inputs": [
        {
          "internalType": "address",
          "name": "packageOwner",
          "type": "address"
        },
        {
          "internalType": "uint256",
          "name": "quantity",
          "type": "uint256"
        }
      ],
      "name": "createStickers",
      "outputs": [],
      "stateMutability": "nonpayable",
      "type": "function"
    },
    {
      "inputs": [
        {
          "internalType": "uint256",
          "name": "stickerId",
          "type": "uint256"
        }
      ],
      "name": "getPlayerIdFromStickerId",
      "outputs": [
        {
          "internalType": "uint256",
          "name": "",
          "type": "uint256"
        }
      ],
      "stateMutability": "view",
      "type": "function",
      "constant": true
    },
    {
      "inputs": [
        {
          "internalType": "address",
          "name": "wallet",
          "type": "address"
        }
      ],
      "name": "getStickersFromWallet",
      "outputs": [
        {
          "internalType": "uint256[]",
          "name": "",
          "type": "uint256[]"
        }
      ],
      "stateMutability": "view",
      "type": "function",
      "constant": true
    }
  ],
  "bytecode": "0x6080604052600060075566038d7ea4c680006008556040518060800160405280606081526020016200364f60609139600990816200003e919062000453565b506102c7600d553480156200005257600080fd5b506040518060400160405280600c81526020017f5161746172537469636b657200000000000000000000000000000000000000008152506040518060400160405280600381526020017f51535400000000000000000000000000000000000000000000000000000000008152508160009081620000d0919062000453565b508060019081620000e2919062000453565b50505062000105620000f96200010b60201b60201c565b6200011360201b60201c565b6200053a565b600033905090565b6000600660009054906101000a900473ffffffffffffffffffffffffffffffffffffffff16905081600660006101000a81548173ffffffffffffffffffffffffffffffffffffffff021916908373ffffffffffffffffffffffffffffffffffffffff1602179055508173ffffffffffffffffffffffffffffffffffffffff168173ffffffffffffffffffffffffffffffffffffffff167f8be0079c531659141344cd1fd0a4f28419497f9722a3daafe3b4186f6b6457e060405160405180910390a35050565b600081519050919050565b7f4e487b7100000000000000000000000000000000000000000000000000000000600052604160045260246000fd5b7f4e487b7100000000000000000000000000000000000000000000000000000000600052602260045260246000fd5b600060028204905060018216806200025b57607f821691505b60208210810362000271576200027062000213565b5b50919050565b60008190508160005260206000209050919050565b60006020601f8301049050919050565b600082821b905092915050565b600060088302620002db7fffffffffffffffffffffffffffffffffffffffffffffffffffffffffffffffff826200029c565b620002e786836200029c565b95508019841693508086168417925050509392505050565b6000819050919050565b6000819050919050565b6000620003346200032e6200032884620002ff565b62000309565b620002ff565b9050919050565b6000819050919050565b620003508362000313565b620003686200035f826200033b565b848454620002a9565b825550505050565b600090565b6200037f62000370565b6200038c81848462000345565b505050565b5b81811015620003b457620003a860008262000375565b60018101905062000392565b5050565b601f8211156200040357620003cd8162000277565b620003d8846200028c565b81016020851015620003e8578190505b62000400620003f7856200028c565b83018262000391565b50505b505050565b600082821c905092915050565b6000620004286000198460080262000408565b1980831691505092915050565b600062000443838362000415565b9150826002028217905092915050565b6200045e82620001d9565b67ffffffffffffffff8111156200047a5762000479620001e4565b5b62000486825462000242565b62000493828285620003b8565b600060209050601f831160018114620004cb5760008415620004b6578287015190505b620004c2858262000435565b86555062000532565b601f198416620004db8662000277565b60005b828110156200050557848901518255600182019150602085019450602081019050620004de565b8683101562000525578489015162000521601f89168262000415565b8355505b6001600288020188555050505b505050505050565b613105806200054a6000396000f3fe608060405234801561001057600080fd5b50600436106101735760003560e01c806371af1dd4116100de578063b7be8d3c11610097578063d49abd6311610071578063d49abd631461045e578063e985e9c51461047a578063f2fde38b146104aa578063f98c4e2c146104c657610173565b8063b7be8d3c146103f6578063b88d4fde14610412578063c87b56dd1461042e57610173565b806371af1dd41461030e5780637b804b4f1461033e5780638da5cb5b1461036e57806395d89b411461038c57806399098bbe146103aa578063a22cb465146103da57610173565b806323b872dd1161013057806323b872dd1461024e57806342842e0e1461026a5780636352211e146102865780636817c76c146102b657806370a08231146102d4578063715018a61461030457610173565b806301ffc9a71461017857806306fdde03146101a8578063081812fc146101c6578063095ea7b3146101f65780631141d7de146102125780631f21bfbf14610230575b600080fd5b610192600480360381019061018d91906120a8565b6104f6565b60405161019f91906120f0565b60405180910390f35b6101b06105d8565b6040516101bd919061219b565b60405180910390f35b6101e060048036038101906101db91906121f3565b61066a565b6040516101ed9190612261565b60405180910390f35b610210600480360381019061020b91906122a8565b6106b0565b005b61021a6107c7565b604051610227919061219b565b60405180910390f35b610238610855565b60405161024591906122f7565b60405180910390f35b61026860048036038101906102639190612312565b61085b565b005b610284600480360381019061027f9190612312565b6108bb565b005b6102a0600480360381019061029b91906121f3565b6108db565b6040516102ad9190612261565b60405180910390f35b6102be610961565b6040516102cb91906122f7565b60405180910390f35b6102ee60048036038101906102e99190612365565b610967565b6040516102fb91906122f7565b60405180910390f35b61030c610a1e565b005b61032860048036038101906103239190612365565b610a32565b6040516103359190612450565b60405180910390f35b610358600480360381019061035391906121f3565b610b1f565b60405161036591906122f7565b60405180910390f35b610376610b3c565b6040516103839190612261565b60405180910390f35b610394610b66565b6040516103a1919061219b565b60405180910390f35b6103c460048036038101906103bf91906121f3565b610bf8565b6040516103d191906122f7565b60405180910390f35b6103f460048036038101906103ef919061249e565b610c10565b005b610410600480360381019061040b91906122a8565b610c26565b005b61042c60048036038101906104279190612613565b610cac565b005b610448600480360381019061044391906121f3565b610d0e565b604051610455919061219b565b60405180910390f35b61047860048036038101906104739190612365565b610d76565b005b610494600480360381019061048f9190612696565b610dc2565b6040516104a191906120f0565b60405180910390f35b6104c460048036038101906104bf9190612365565b610e56565b005b6104e060048036038101906104db91906121f3565b610ed9565b6040516104ed919061219b565b60405180910390f35b60007f80ac58cd000000000000000000000000000000000000000000000000000000007bffffffffffffffffffffffffffffffffffffffffffffffffffffffff1916827bffffffffffffffffffffffffffffffffffffffffffffffffffffffff191614806105c157507f5b5e139f000000000000000000000000000000000000000000000000000000007bffffffffffffffffffffffffffffffffffffffffffffffffffffffff1916827bffffffffffffffffffffffffffffffffffffffffffffffffffffffff1916145b806105d157506105d082610f79565b5b9050919050565b6060600080546105e790612705565b80601f016020809104026020016040519081016040528092919081815260200182805461061390612705565b80156106605780601f1061063557610100808354040283529160200191610660565b820191906000526020600020905b81548152906001019060200180831161064357829003601f168201915b5050505050905090565b600061067582610fe3565b6004600083815260200190815260200160002060009054906101000a900473ffffffffffffffffffffffffffffffffffffffff169050919050565b60006106bb826108db565b90508073ffffffffffffffffffffffffffffffffffffffff168373ffffffffffffffffffffffffffffffffffffffff160361072b576040517f08c379a0000000000000000000000000000000000000000000000000000000008152600401610722906127a8565b60405180910390fd5b8073ffffffffffffffffffffffffffffffffffffffff1661074a61102e565b73ffffffffffffffffffffffffffffffffffffffff16148061077957506107788161077361102e565b610dc2565b5b6107b8576040517f08c379a00000000000000000000000000000000000000000000000000000000081526004016107af9061283a565b60405180910390fd5b6107c28383611036565b505050565b600980546107d490612705565b80601f016020809104026020016040519081016040528092919081815260200182805461080090612705565b801561084d5780601f106108225761010080835404028352916020019161084d565b820191906000526020600020905b81548152906001019060200180831161083057829003601f168201915b505050505081565b60075481565b61086c61086661102e565b826110ef565b6108ab576040517f08c379a00000000000000000000000000000000000000000000000000000000081526004016108a2906128cc565b60405180910390fd5b6108b6838383611184565b505050565b6108d683838360405180602001604052806000815250610cac565b505050565b6000806108e78361147d565b9050600073ffffffffffffffffffffffffffffffffffffffff168173ffffffffffffffffffffffffffffffffffffffff1603610958576040517f08c379a000000000000000000000000000000000000000000000000000000000815260040161094f90612938565b60405180910390fd5b80915050919050565b60085481565b60008073ffffffffffffffffffffffffffffffffffffffff168273ffffffffffffffffffffffffffffffffffffffff16036109d7576040517f08c379a00000000000000000000000000000000000000000000000000000000081526004016109ce906129ca565b60405180910390fd5b600360008373ffffffffffffffffffffffffffffffffffffffff1673ffffffffffffffffffffffffffffffffffffffff168152602001908152602001600020549050919050565b610a266114ba565b610a306000611538565b565b60606000610a3f83610967565b67ffffffffffffffff811115610a5857610a576124e8565b5b604051908082528060200260200182016040528015610a865781602001602082028036833780820191505090505b5090506000805b600754811015610b14578473ffffffffffffffffffffffffffffffffffffffff16610ab7826108db565b73ffffffffffffffffffffffffffffffffffffffff1603610b015780838381518110610ae657610ae56129ea565b5b6020026020010181815250508180610afd90612a48565b9250505b8080610b0c90612a48565b915050610a8d565b508192505050919050565b6000600a6000838152602001908152602001600020549050919050565b6000600660009054906101000a900473ffffffffffffffffffffffffffffffffffffffff16905090565b606060018054610b7590612705565b80601f0160208091040260200160405190810160405280929190818152602001828054610ba190612705565b8015610bee5780601f10610bc357610100808354040283529160200191610bee565b820191906000526020600020905b815481529060010190602001808311610bd157829003601f168201915b5050505050905090565b600a6020528060005260406000206000915090505481565b610c22610c1b61102e565b83836115fe565b5050565b600c60009054906101000a900473ffffffffffffffffffffffffffffffffffffffff1673ffffffffffffffffffffffffffffffffffffffff163373ffffffffffffffffffffffffffffffffffffffff1614610c8057600080fd5b60005b81811015610ca757610c948361176a565b8080610c9f90612a48565b915050610c83565b505050565b610cbd610cb761102e565b836110ef565b610cfc576040517f08c379a0000000000000000000000000000000000000000000000000000000008152600401610cf3906128cc565b60405180910390fd5b610d08848484846117b6565b50505050565b6060610d1982610fe3565b6000610d23611812565b90506000815111610d435760405180602001604052806000815250610d6e565b80610d4d84611829565b604051602001610d5e929190612acc565b6040516020818303038152906040525b915050919050565b610d7e6114ba565b80600c60006101000a81548173ffffffffffffffffffffffffffffffffffffffff021916908373ffffffffffffffffffffffffffffffffffffffff16021790555050565b6000600560008473ffffffffffffffffffffffffffffffffffffffff1673ffffffffffffffffffffffffffffffffffffffff16815260200190815260200160002060008373ffffffffffffffffffffffffffffffffffffffff1673ffffffffffffffffffffffffffffffffffffffff16815260200190815260200160002060009054906101000a900460ff16905092915050565b610e5e6114ba565b600073ffffffffffffffffffffffffffffffffffffffff168173ffffffffffffffffffffffffffffffffffffffff1603610ecd576040517f08c379a0000000000000000000000000000000000000000000000000000000008152600401610ec490612b62565b60405180910390fd5b610ed681611538565b50565b600b6020528060005260406000206000915090508054610ef890612705565b80601f0160208091040260200160405190810160405280929190818152602001828054610f2490612705565b8015610f715780601f10610f4657610100808354040283529160200191610f71565b820191906000526020600020905b815481529060010190602001808311610f5457829003601f168201915b505050505081565b60007f01ffc9a7000000000000000000000000000000000000000000000000000000007bffffffffffffffffffffffffffffffffffffffffffffffffffffffff1916827bffffffffffffffffffffffffffffffffffffffffffffffffffffffff1916149050919050565b610fec816118f7565b61102b576040517f08c379a000000000000000000000000000000000000000000000000000000000815260040161102290612938565b60405180910390fd5b50565b600033905090565b816004600083815260200190815260200160002060006101000a81548173ffffffffffffffffffffffffffffffffffffffff021916908373ffffffffffffffffffffffffffffffffffffffff160217905550808273ffffffffffffffffffffffffffffffffffffffff166110a9836108db565b73ffffffffffffffffffffffffffffffffffffffff167f8c5be1e5ebec7d5bd14f71427d1e84f3dd0314c0f7b2291e5b200ac8c7c3b92560405160405180910390a45050565b6000806110fb836108db565b90508073ffffffffffffffffffffffffffffffffffffffff168473ffffffffffffffffffffffffffffffffffffffff16148061113d575061113c8185610dc2565b5b8061117b57508373ffffffffffffffffffffffffffffffffffffffff166111638461066a565b73ffffffffffffffffffffffffffffffffffffffff16145b91505092915050565b8273ffffffffffffffffffffffffffffffffffffffff166111a4826108db565b73ffffffffffffffffffffffffffffffffffffffff16146111fa576040517f08c379a00000000000000000000000000000000000000000000000000000000081526004016111f190612bf4565b60405180910390fd5b600073ffffffffffffffffffffffffffffffffffffffff168273ffffffffffffffffffffffffffffffffffffffff1603611269576040517f08c379a000000000000000000000000000000000000000000000000000000000815260040161126090612c86565b60405180910390fd5b6112768383836001611938565b8273ffffffffffffffffffffffffffffffffffffffff16611296826108db565b73ffffffffffffffffffffffffffffffffffffffff16146112ec576040517f08c379a00000000000000000000000000000000000000000000000000000000081526004016112e390612bf4565b60405180910390fd5b6004600082815260200190815260200160002060006101000a81549073ffffffffffffffffffffffffffffffffffffffff02191690556001600360008573ffffffffffffffffffffffffffffffffffffffff1673ffffffffffffffffffffffffffffffffffffffff168152602001908152602001600020600082825403925050819055506001600360008473ffffffffffffffffffffffffffffffffffffffff1673ffffffffffffffffffffffffffffffffffffffff16815260200190815260200160002060008282540192505081905550816002600083815260200190815260200160002060006101000a81548173ffffffffffffffffffffffffffffffffffffffff021916908373ffffffffffffffffffffffffffffffffffffffff160217905550808273ffffffffffffffffffffffffffffffffffffffff168473ffffffffffffffffffffffffffffffffffffffff167fddf252ad1be2c89b69c2b068fc378daa952ba7f163c4a11628f55a4df523b3ef60405160405180910390a46114788383836001611a5e565b505050565b60006002600083815260200190815260200160002060009054906101000a900473ffffffffffffffffffffffffffffffffffffffff169050919050565b6114c261102e565b73ffffffffffffffffffffffffffffffffffffffff166114e0610b3c565b73ffffffffffffffffffffffffffffffffffffffff1614611536576040517f08c379a000000000000000000000000000000000000000000000000000000000815260040161152d90612cf2565b60405180910390fd5b565b6000600660009054906101000a900473ffffffffffffffffffffffffffffffffffffffff16905081600660006101000a81548173ffffffffffffffffffffffffffffffffffffffff021916908373ffffffffffffffffffffffffffffffffffffffff1602179055508173ffffffffffffffffffffffffffffffffffffffff168173ffffffffffffffffffffffffffffffffffffffff167f8be0079c531659141344cd1fd0a4f28419497f9722a3daafe3b4186f6b6457e060405160405180910390a35050565b8173ffffffffffffffffffffffffffffffffffffffff168373ffffffffffffffffffffffffffffffffffffffff160361166c576040517f08c379a000000000000000000000000000000000000000000000000000000000815260040161166390612d5e565b60405180910390fd5b80600560008573ffffffffffffffffffffffffffffffffffffffff1673ffffffffffffffffffffffffffffffffffffffff16815260200190815260200160002060008473ffffffffffffffffffffffffffffffffffffffff1673ffffffffffffffffffffffffffffffffffffffff16815260200190815260200160002060006101000a81548160ff0219169083151502179055508173ffffffffffffffffffffffffffffffffffffffff168373ffffffffffffffffffffffffffffffffffffffff167f17307eab39ab6107e8899845ad3d59bd9653f200f220920489ca2b5937696c318360405161175d91906120f0565b60405180910390a3505050565b60006007549050611779611a64565b600a600083815260200190815260200160002081905550600760008154809291906117a390612a48565b91905055506117b28282611aa9565b5050565b6117c1848484611184565b6117cd84848484611ac7565b61180c576040517f08c379a000000000000000000000000000000000000000000000000000000000815260040161180390612df0565b60405180910390fd5b50505050565b606060405180602001604052806000815250905090565b60606000600161183884611c4e565b01905060008167ffffffffffffffff811115611857576118566124e8565b5b6040519080825280601f01601f1916602001820160405280156118895781602001600182028036833780820191505090505b509050600082602001820190505b6001156118ec578080600190039150507f3031323334353637383961626364656600000000000000000000000000000000600a86061a8153600a85816118e0576118df612e10565b5b04945060008503611897575b819350505050919050565b60008073ffffffffffffffffffffffffffffffffffffffff166119198361147d565b73ffffffffffffffffffffffffffffffffffffffff1614159050919050565b6001811115611a5857600073ffffffffffffffffffffffffffffffffffffffff168473ffffffffffffffffffffffffffffffffffffffff16146119cc5780600360008673ffffffffffffffffffffffffffffffffffffffff1673ffffffffffffffffffffffffffffffffffffffff16815260200190815260200160002060008282546119c49190612e3f565b925050819055505b600073ffffffffffffffffffffffffffffffffffffffff168373ffffffffffffffffffffffffffffffffffffffff1614611a575780600360008573ffffffffffffffffffffffffffffffffffffffff1673ffffffffffffffffffffffffffffffffffffffff1681526020019081526020016000206000828254611a4f9190612e73565b925050819055505b5b50505050565b50505050565b600080600754604051602001611a7a9190612ec8565b6040516020818303038152906040528051906020012060001c9050600d5481611aa39190612ee3565b91505090565b611ac3828260405180602001604052806000815250611da1565b5050565b6000611ae88473ffffffffffffffffffffffffffffffffffffffff16611dfc565b15611c41578373ffffffffffffffffffffffffffffffffffffffff1663150b7a02611b1161102e565b8786866040518563ffffffff1660e01b8152600401611b339493929190612f69565b6020604051808303816000875af1925050508015611b6f57506040513d601f19601f82011682018060405250810190611b6c9190612fca565b60015b611bf1573d8060008114611b9f576040519150601f19603f3d011682016040523d82523d6000602084013e611ba4565b606091505b506000815103611be9576040517f08c379a0000000000000000000000000000000000000000000000000000000008152600401611be090612df0565b60405180910390fd5b805181602001fd5b63150b7a0260e01b7bffffffffffffffffffffffffffffffffffffffffffffffffffffffff1916817bffffffffffffffffffffffffffffffffffffffffffffffffffffffff191614915050611c46565b600190505b949350505050565b600080600090507a184f03e93ff9f4daa797ed6e38ed64bf6a1f0100000000000000008310611cac577a184f03e93ff9f4daa797ed6e38ed64bf6a1f0100000000000000008381611ca257611ca1612e10565b5b0492506040810190505b6d04ee2d6d415b85acef81000000008310611ce9576d04ee2d6d415b85acef81000000008381611cdf57611cde612e10565b5b0492506020810190505b662386f26fc100008310611d1857662386f26fc100008381611d0e57611d0d612e10565b5b0492506010810190505b6305f5e1008310611d41576305f5e1008381611d3757611d36612e10565b5b0492506008810190505b6127108310611d66576127108381611d5c57611d5b612e10565b5b0492506004810190505b60648310611d895760648381611d7f57611d7e612e10565b5b0492506002810190505b600a8310611d98576001810190505b80915050919050565b611dab8383611e1f565b611db86000848484611ac7565b611df7576040517f08c379a0000000000000000000000000000000000000000000000000000000008152600401611dee90612df0565b60405180910390fd5b505050565b6000808273ffffffffffffffffffffffffffffffffffffffff163b119050919050565b600073ffffffffffffffffffffffffffffffffffffffff168273ffffffffffffffffffffffffffffffffffffffff1603611e8e576040517f08c379a0000000000000000000000000000000000000000000000000000000008152600401611e8590613043565b60405180910390fd5b611e97816118f7565b15611ed7576040517f08c379a0000000000000000000000000000000000000000000000000000000008152600401611ece906130af565b60405180910390fd5b611ee5600083836001611938565b611eee816118f7565b15611f2e576040517f08c379a0000000000000000000000000000000000000000000000000000000008152600401611f25906130af565b60405180910390fd5b6001600360008473ffffffffffffffffffffffffffffffffffffffff1673ffffffffffffffffffffffffffffffffffffffff16815260200190815260200160002060008282540192505081905550816002600083815260200190815260200160002060006101000a81548173ffffffffffffffffffffffffffffffffffffffff021916908373ffffffffffffffffffffffffffffffffffffffff160217905550808273ffffffffffffffffffffffffffffffffffffffff16600073ffffffffffffffffffffffffffffffffffffffff167fddf252ad1be2c89b69c2b068fc378daa952ba7f163c4a11628f55a4df523b3ef60405160405180910390a4612038600083836001611a5e565b5050565b6000604051905090565b600080fd5b600080fd5b60007fffffffff0000000000000000000000000000000000000000000000000000000082169050919050565b61208581612050565b811461209057600080fd5b50565b6000813590506120a28161207c565b92915050565b6000602082840312156120be576120bd612046565b5b60006120cc84828501612093565b91505092915050565b60008115159050919050565b6120ea816120d5565b82525050565b600060208201905061210560008301846120e1565b92915050565b600081519050919050565b600082825260208201905092915050565b60005b8381101561214557808201518184015260208101905061212a565b60008484015250505050565b6000601f19601f8301169050919050565b600061216d8261210b565b6121778185612116565b9350612187818560208601612127565b61219081612151565b840191505092915050565b600060208201905081810360008301526121b58184612162565b905092915050565b6000819050919050565b6121d0816121bd565b81146121db57600080fd5b50565b6000813590506121ed816121c7565b92915050565b60006020828403121561220957612208612046565b5b6000612217848285016121de565b91505092915050565b600073ffffffffffffffffffffffffffffffffffffffff82169050919050565b600061224b82612220565b9050919050565b61225b81612240565b82525050565b60006020820190506122766000830184612252565b92915050565b61228581612240565b811461229057600080fd5b50565b6000813590506122a28161227c565b92915050565b600080604083850312156122bf576122be612046565b5b60006122cd85828601612293565b92505060206122de858286016121de565b9150509250929050565b6122f1816121bd565b82525050565b600060208201905061230c60008301846122e8565b92915050565b60008060006060848603121561232b5761232a612046565b5b600061233986828701612293565b935050602061234a86828701612293565b925050604061235b868287016121de565b9150509250925092565b60006020828403121561237b5761237a612046565b5b600061238984828501612293565b91505092915050565b600081519050919050565b600082825260208201905092915050565b6000819050602082019050919050565b6123c7816121bd565b82525050565b60006123d983836123be565b60208301905092915050565b6000602082019050919050565b60006123fd82612392565b612407818561239d565b9350612412836123ae565b8060005b8381101561244357815161242a88826123cd565b9750612435836123e5565b925050600181019050612416565b5085935050505092915050565b6000602082019050818103600083015261246a81846123f2565b905092915050565b61247b816120d5565b811461248657600080fd5b50565b60008135905061249881612472565b92915050565b600080604083850312156124b5576124b4612046565b5b60006124c385828601612293565b92505060206124d485828601612489565b9150509250929050565b600080fd5b600080fd5b7f4e487b7100000000000000000000000000000000000000000000000000000000600052604160045260246000fd5b61252082612151565b810181811067ffffffffffffffff8211171561253f5761253e6124e8565b5b80604052505050565b600061255261203c565b905061255e8282612517565b919050565b600067ffffffffffffffff82111561257e5761257d6124e8565b5b61258782612151565b9050602081019050919050565b82818337600083830152505050565b60006125b66125b184612563565b612548565b9050828152602081018484840111156125d2576125d16124e3565b5b6125dd848285612594565b509392505050565b600082601f8301126125fa576125f96124de565b5b813561260a8482602086016125a3565b91505092915050565b6000806000806080858703121561262d5761262c612046565b5b600061263b87828801612293565b945050602061264c87828801612293565b935050604061265d878288016121de565b925050606085013567ffffffffffffffff81111561267e5761267d61204b565b5b61268a878288016125e5565b91505092959194509250565b600080604083850312156126ad576126ac612046565b5b60006126bb85828601612293565b92505060206126cc85828601612293565b9150509250929050565b7f4e487b7100000000000000000000000000000000000000000000000000000000600052602260045260246000fd5b6000600282049050600182168061271d57607f821691505b6020821081036127305761272f6126d6565b5b50919050565b7f4552433732313a20617070726f76616c20746f2063757272656e74206f776e6560008201527f7200000000000000000000000000000000000000000000000000000000000000602082015250565b6000612792602183612116565b915061279d82612736565b604082019050919050565b600060208201905081810360008301526127c181612785565b9050919050565b7f4552433732313a20617070726f76652063616c6c6572206973206e6f7420746f60008201527f6b656e206f776e6572206f7220617070726f76656420666f7220616c6c000000602082015250565b6000612824603d83612116565b915061282f826127c8565b604082019050919050565b6000602082019050818103600083015261285381612817565b9050919050565b7f4552433732313a2063616c6c6572206973206e6f7420746f6b656e206f776e6560008201527f72206f7220617070726f76656400000000000000000000000000000000000000602082015250565b60006128b6602d83612116565b91506128c18261285a565b604082019050919050565b600060208201905081810360008301526128e5816128a9565b9050919050565b7f4552433732313a20696e76616c696420746f6b656e2049440000000000000000600082015250565b6000612922601883612116565b915061292d826128ec565b602082019050919050565b6000602082019050818103600083015261295181612915565b9050919050565b7f4552433732313a2061646472657373207a65726f206973206e6f74206120766160008201527f6c6964206f776e65720000000000000000000000000000000000000000000000602082015250565b60006129b4602983612116565b91506129bf82612958565b604082019050919050565b600060208201905081810360008301526129e3816129a7565b9050919050565b7f4e487b7100000000000000000000000000000000000000000000000000000000600052603260045260246000fd5b7f4e487b7100000000000000000000000000000000000000000000000000000000600052601160045260246000fd5b6000612a53826121bd565b91507fffffffffffffffffffffffffffffffffffffffffffffffffffffffffffffffff8203612a8557612a84612a19565b5b600182019050919050565b600081905092915050565b6000612aa68261210b565b612ab08185612a90565b9350612ac0818560208601612127565b80840191505092915050565b6000612ad88285612a9b565b9150612ae48284612a9b565b91508190509392505050565b7f4f776e61626c653a206e6577206f776e657220697320746865207a65726f206160008201527f6464726573730000000000000000000000000000000000000000000000000000602082015250565b6000612b4c602683612116565b9150612b5782612af0565b604082019050919050565b60006020820190508181036000830152612b7b81612b3f565b9050919050565b7f4552433732313a207472616e736665722066726f6d20696e636f72726563742060008201527f6f776e6572000000000000000000000000000000000000000000000000000000602082015250565b6000612bde602583612116565b9150612be982612b82565b604082019050919050565b60006020820190508181036000830152612c0d81612bd1565b9050919050565b7f4552433732313a207472616e7366657220746f20746865207a65726f2061646460008201527f7265737300000000000000000000000000000000000000000000000000000000602082015250565b6000612c70602483612116565b9150612c7b82612c14565b604082019050919050565b60006020820190508181036000830152612c9f81612c63565b9050919050565b7f4f776e61626c653a2063616c6c6572206973206e6f7420746865206f776e6572600082015250565b6000612cdc602083612116565b9150612ce782612ca6565b602082019050919050565b60006020820190508181036000830152612d0b81612ccf565b9050919050565b7f4552433732313a20617070726f766520746f2063616c6c657200000000000000600082015250565b6000612d48601983612116565b9150612d5382612d12565b602082019050919050565b60006020820190508181036000830152612d7781612d3b565b9050919050565b7f4552433732313a207472616e7366657220746f206e6f6e20455243373231526560008201527f63656976657220696d706c656d656e7465720000000000000000000000000000602082015250565b6000612dda603283612116565b9150612de582612d7e565b604082019050919050565b60006020820190508181036000830152612e0981612dcd565b9050919050565b7f4e487b7100000000000000000000000000000000000000000000000000000000600052601260045260246000fd5b6000612e4a826121bd565b9150612e55836121bd565b9250828203905081811115612e6d57612e6c612a19565b5b92915050565b6000612e7e826121bd565b9150612e89836121bd565b9250828201905080821115612ea157612ea0612a19565b5b92915050565b6000819050919050565b612ec2612ebd826121bd565b612ea7565b82525050565b6000612ed48284612eb1565b60208201915081905092915050565b6000612eee826121bd565b9150612ef9836121bd565b925082612f0957612f08612e10565b5b828206905092915050565b600081519050919050565b600082825260208201905092915050565b6000612f3b82612f14565b612f458185612f1f565b9350612f55818560208601612127565b612f5e81612151565b840191505092915050565b6000608082019050612f7e6000830187612252565b612f8b6020830186612252565b612f9860408301856122e8565b8181036060830152612faa8184612f30565b905095945050505050565b600081519050612fc48161207c565b92915050565b600060208284031215612fe057612fdf612046565b5b6000612fee84828501612fb5565b91505092915050565b7f4552433732313a206d696e7420746f20746865207a65726f2061646472657373600082015250565b600061302d602083612116565b915061303882612ff7565b602082019050919050565b6000602082019050818103600083015261305c81613020565b9050919050565b7f4552433732313a20746f6b656e20616c7265616479206d696e74656400000000600082015250565b6000613099601c83612116565b91506130a482613063565b602082019050919050565b600060208201905081810360008301526130c88161308c565b905091905056fea26469706673582212209bab2559cff64a89b3f36f1d149e84ddaaf4520d25d4d939617eff17957243c664736f6c6343000811003368747470733a2f2f6261667962656966716d677966793462793367706d7335736476336674336b6e63636d6a737178667171757578656d6f687477666d3779376e77612e697066732e647765622e6c696e6b2f6d657461646174612e6a736f6e",
  "immutableReferences": {},
  "source": "//SPDX-License-Identifier: MIT\r\npragma solidity ^0.8.17;\r\n\r\nimport \"@openzeppelin/contracts/token/ERC721/ERC721.sol\";\r\nimport \"@openzeppelin/contracts/access/Ownable.sol\";\r\n\r\n/// @title A world cup sticker implementation\r\n/// @author @mrti259/@saantim/@ovr4ulin\r\n/// @notice You can use this contract to generate NFT stickers\r\n/// @dev This contract can mint a pseudo-random sticker using the ERC721 interface\r\ncontract FiubaSticker is ERC721, Ownable{\r\n\r\n    uint256 public totalMints = 0;\r\n    uint256 public mintPrice = 1000000 gwei; \r\n    string public URI = \"https://bafybeifqmgyfy4by3gpms5sdv3ft3knccmjsqxfqquuxemohtwfm7y7nwa.ipfs.dweb.link/metadata.json\";\r\n    \r\n    mapping(uint256 => uint256) public stickerToPlayer;\r\n    mapping(uint256 => string) public playerToURI; \r\n    \r\n    address private packageAddress;\r\n    uint256 private maxPlayer = 711;\r\n\r\n    /// @notice You can set the package contract where you gonna get your stickers from\r\n    /// @dev From here you can set the package contract. This contract gonna be necesary to use the onlyPackage() modifier\r\n    /// @param newPackageAddress a package contract address\r\n    function setPackageAddress(address newPackageAddress) public onlyOwner {\r\n        packageAddress = newPackageAddress;\r\n    }\r\n\r\n    /// @dev This modifier verifies if the package contract is the message sender\r\n    modifier onlyPackage(){\r\n        require(msg.sender == packageAddress);\r\n        _;\r\n    }\r\n\r\n    constructor() ERC721(\"QatarSticker\", \"QST\") {\r\n    }\r\n\r\n    /// @notice You can use this function to mint Stickers \r\n    /// @dev This function can be called only for Package\r\n    /// @param packageOwner It's the owner of the stickers\r\n    /// @param quantity It's the number of stickers to be minted\r\n    function createStickers(address packageOwner, uint256 quantity) public onlyPackage {\r\n        for (uint i = 0; i < quantity; i++) {\r\n            safeMint(packageOwner);\r\n        }\r\n    }\r\n\r\n    /// @dev This internal function generates a pseudo-random playerId and mint the associated token\r\n    /// @param to This address gonna be the owner of the minted token\r\n    function safeMint(address to) internal {\r\n        uint tokenId = totalMints;\r\n        stickerToPlayer[tokenId] = randomPlayerId();\r\n        totalMints++;\r\n\r\n        _safeMint(to, tokenId);\r\n    }\r\n\r\n    /// @dev This private function returns a pseudo random value less than `maxPlayer`\r\n    /// @return randomPlayerId It's a pseudo random value less than `maxPlayer`\r\n    function randomPlayerId() private view returns (uint256) {\r\n        uint randId = uint(keccak256(abi.encodePacked(totalMints)));\r\n        return randId % maxPlayer; \r\n    }\r\n\r\n    /// @notice You can use this function to know sticker's player\r\n    /// @dev A mapping index-access to get the playerId by his stickerId\r\n    /// @param stickerId This function returns the player associated with this stickerId\r\n    /// @return playerId It's the unique-number of the player associated to the stickerId\r\n    function getPlayerIdFromStickerId(uint256 stickerId) public view returns (uint256) {\r\n        return stickerToPlayer[stickerId];\r\n    }\r\n    \r\n    /// @notice You can get a list of all sticker associated to a wallet\r\n    /// @dev This function go through all the minted tokens and push into a list each token associated to a specify wallet\r\n    /// @param wallet This function will search all the associated tokens to this address\r\n    /// @return stickers Returns a collection of all the associated tokens to the wallet used as parameter\r\n    function getStickersFromWallet(address wallet) public view returns (uint256[] memory) {\r\n        uint[] memory result = new uint[](balanceOf(wallet));\r\n        uint counter = 0;\r\n\r\n        for (uint i = 0; i < totalMints; i++){\r\n            if (ownerOf(i) == wallet){\r\n                result[counter] = i;\r\n                counter++;\r\n            }\r\n        }\r\n\r\n        return result;\r\n    }\r\n}",
  "sourcePath": "D:\\repos\\fiuba-panini\\fiuba-panini\\dapp\\contracts\\FiubaStickers.sol",
  "compiler": {
    "name": "solc",
    "version": "0.8.17+commit.8df45f5f.Emscripten.clang"
  },
  "schemaVersion": "3.4.11",
  "updatedAt": "2022-12-03T04:16:57.007Z",
  "networkType": "ethereum",
  "devdoc": {
    "author": "@mrti259/@saantim/@ovr4ulin",
    "details": "This contract can mint a pseudo-random sticker using the ERC721 interface",
    "kind": "dev",
    "methods": {
      "approve(address,uint256)": {
        "details": "See {IERC721-approve}."
      },
      "balanceOf(address)": {
        "details": "See {IERC721-balanceOf}."
      },
      "createStickers(address,uint256)": {
        "details": "This function can be called only for Package",
        "params": {
          "packageOwner": "It's the owner of the stickers",
          "quantity": "It's the number of stickers to be minted"
        }
      },
      "getApproved(uint256)": {
        "details": "See {IERC721-getApproved}."
      },
      "getPlayerIdFromStickerId(uint256)": {
        "details": "A mapping index-access to get the playerId by his stickerId",
        "params": {
          "stickerId": "This function returns the player associated with this stickerId"
        },
        "returns": {
          "_0": "playerId It's the unique-number of the player associated to the stickerId"
        }
      },
      "getStickersFromWallet(address)": {
        "details": "This function go through all the minted tokens and push into a list each token associated to a specify wallet",
        "params": {
          "wallet": "This function will search all the associated tokens to this address"
        },
        "returns": {
          "_0": "stickers Returns a collection of all the associated tokens to the wallet used as parameter"
        }
      },
      "isApprovedForAll(address,address)": {
        "details": "See {IERC721-isApprovedForAll}."
      },
      "name()": {
        "details": "See {IERC721Metadata-name}."
      },
      "owner()": {
        "details": "Returns the address of the current owner."
      },
      "ownerOf(uint256)": {
        "details": "See {IERC721-ownerOf}."
      },
      "renounceOwnership()": {
        "details": "Leaves the contract without owner. It will not be possible to call `onlyOwner` functions anymore. Can only be called by the current owner. NOTE: Renouncing ownership will leave the contract without an owner, thereby removing any functionality that is only available to the owner."
      },
      "safeTransferFrom(address,address,uint256)": {
        "details": "See {IERC721-safeTransferFrom}."
      },
      "safeTransferFrom(address,address,uint256,bytes)": {
        "details": "See {IERC721-safeTransferFrom}."
      },
      "setApprovalForAll(address,bool)": {
        "details": "See {IERC721-setApprovalForAll}."
      },
      "setPackageAddress(address)": {
        "details": "From here you can set the package contract. This contract gonna be necesary to use the onlyPackage() modifier",
        "params": {
          "newPackageAddress": "a package contract address"
        }
      },
      "supportsInterface(bytes4)": {
        "details": "See {IERC165-supportsInterface}."
      },
      "symbol()": {
        "details": "See {IERC721Metadata-symbol}."
      },
      "tokenURI(uint256)": {
        "details": "See {IERC721Metadata-tokenURI}."
      },
      "transferFrom(address,address,uint256)": {
        "details": "See {IERC721-transferFrom}."
      },
      "transferOwnership(address)": {
        "details": "Transfers ownership of the contract to a new account (`newOwner`). Can only be called by the current owner."
      }
    },
    "title": "A world cup sticker implementation",
    "version": 1
  },
  "userdoc": {
    "kind": "user",
    "methods": {
      "createStickers(address,uint256)": {
        "notice": "You can use this function to mint Stickers "
      },
      "getPlayerIdFromStickerId(uint256)": {
        "notice": "You can use this function to know sticker's player"
      },
      "getStickersFromWallet(address)": {
        "notice": "You can get a list of all sticker associated to a wallet"
      },
      "setPackageAddress(address)": {
        "notice": "You can set the package contract where you gonna get your stickers from"
      }
    },
    "notice": "You can use this contract to generate NFT stickers",
    "version": 1
  }
}