{
  "contractName": "FiubaPackage",
  "abi": [
    {
      "anonymous": false,
      "inputs": [
        {
          "indexed": true,
          "internalType": "address",
          "name": "previousOwner",
          "type": "address"
        },
        {
          "indexed": true,
          "internalType": "address",
          "name": "newOwner",
          "type": "address"
        }
      ],
      "name": "OwnershipTransferred",
      "type": "event"
    },
    {
      "inputs": [],
      "name": "owner",
      "outputs": [
        {
          "internalType": "address",
          "name": "",
          "type": "address"
        }
      ],
      "stateMutability": "view",
      "type": "function",
      "constant": true
    },
    {
      "inputs": [],
      "name": "renounceOwnership",
      "outputs": [],
      "stateMutability": "nonpayable",
      "type": "function"
    },
    {
      "inputs": [
        {
          "internalType": "address",
          "name": "newOwner",
          "type": "address"
        }
      ],
      "name": "transferOwnership",
      "outputs": [],
      "stateMutability": "nonpayable",
      "type": "function"
    },
    {
      "inputs": [
        {
          "internalType": "uint256",
          "name": "_amount",
          "type": "uint256"
        }
      ],
      "name": "setStickersPerPackage",
      "outputs": [],
      "stateMutability": "nonpayable",
      "type": "function"
    },
    {
      "inputs": [
        {
          "internalType": "uint256",
          "name": "_price",
          "type": "uint256"
        }
      ],
      "name": "setPrice",
      "outputs": [],
      "stateMutability": "nonpayable",
      "type": "function"
    },
    {
      "inputs": [
        {
          "internalType": "address",
          "name": "_coinAddress",
          "type": "address"
        }
      ],
      "name": "setCoinAddress",
      "outputs": [],
      "stateMutability": "nonpayable",
      "type": "function"
    },
    {
      "inputs": [
        {
          "internalType": "address",
          "name": "_stickerAddress",
          "type": "address"
        }
      ],
      "name": "setStickerAddress",
      "outputs": [],
      "stateMutability": "nonpayable",
      "type": "function"
    },
    {
      "inputs": [
        {
          "internalType": "uint256",
          "name": "_quantity",
          "type": "uint256"
        }
      ],
      "name": "buyPackages",
      "outputs": [],
      "stateMutability": "nonpayable",
      "type": "function"
    },
    {
      "inputs": [],
      "name": "openPackage",
      "outputs": [],
      "stateMutability": "nonpayable",
      "type": "function"
    },
    {
      "inputs": [
        {
          "internalType": "address",
          "name": "_owner",
          "type": "address"
        }
      ],
      "name": "getAmountOfPackagesFrom",
      "outputs": [
        {
          "internalType": "uint256",
          "name": "",
          "type": "uint256"
        }
      ],
      "stateMutability": "view",
      "type": "function",
      "constant": true
    }
  ],
  "bytecode": "0x6080604052600560045534801561001557600080fd5b5061003261002761003760201b60201c565b61003f60201b60201c565b610103565b600033905090565b60008060009054906101000a900473ffffffffffffffffffffffffffffffffffffffff169050816000806101000a81548173ffffffffffffffffffffffffffffffffffffffff021916908373ffffffffffffffffffffffffffffffffffffffff1602179055508173ffffffffffffffffffffffffffffffffffffffff168173ffffffffffffffffffffffffffffffffffffffff167f8be0079c531659141344cd1fd0a4f28419497f9722a3daafe3b4186f6b6457e060405160405180910390a35050565b610b87806101126000396000f3fe608060405234801561001057600080fd5b506004361061009e5760003560e01c80638da5cb5b116100665780638da5cb5b1461011f57806391b7f5ed1461013d578063b0bdacc614610159578063d8ca2bbe14610175578063f2fde38b146101915761009e565b806313c38687146100a35780633b99d0be146100bf578063715018a6146100db5780637896fe49146100e55780637d5eaa4a146100ef575b600080fd5b6100bd60048036038101906100b891906107fd565b6101ad565b005b6100d960048036038101906100d49190610888565b6101cc565b005b6100e3610218565b005b6100ed61022c565b005b61010960048036038101906101049190610888565b6103a1565b60405161011691906108c4565b60405180910390f35b6101276103ea565b60405161013491906108ee565b60405180910390f35b610157600480360381019061015291906107fd565b610413565b005b610173600480360381019061016e9190610888565b610438565b005b61018f600480360381019061018a91906107fd565b610484565b005b6101ab60048036038101906101a69190610888565b6105c9565b005b6101b561064c565b600081116101c257600080fd5b8060048190555050565b6101d461064c565b80600260006101000a81548173ffffffffffffffffffffffffffffffffffffffff021916908373ffffffffffffffffffffffffffffffffffffffff16021790555050565b61022061064c565b61022a60006106ca565b565b6000600560003373ffffffffffffffffffffffffffffffffffffffff1673ffffffffffffffffffffffffffffffffffffffff168152602001908152602001600020541161027857600080fd5b600260009054906101000a900473ffffffffffffffffffffffffffffffffffffffff1673ffffffffffffffffffffffffffffffffffffffff1663b7be8d3c336004546040518363ffffffff1660e01b81526004016102d7929190610909565b600060405180830381600087803b1580156102f157600080fd5b505af1158015610305573d6000803e3d6000fd5b5050505061035c6001600560003373ffffffffffffffffffffffffffffffffffffffff1673ffffffffffffffffffffffffffffffffffffffff1681526020019081526020016000205461078e90919063ffffffff16565b600560003373ffffffffffffffffffffffffffffffffffffffff1673ffffffffffffffffffffffffffffffffffffffff16815260200190815260200160002081905550565b6000600560008373ffffffffffffffffffffffffffffffffffffffff1673ffffffffffffffffffffffffffffffffffffffff168152602001908152602001600020549050919050565b60008060009054906101000a900473ffffffffffffffffffffffffffffffffffffffff16905090565b61041b61064c565b670de0b6b3a76400008161042f9190610961565b60038190555050565b61044061064c565b80600160006101000a81548173ffffffffffffffffffffffffffffffffffffffff021916908373ffffffffffffffffffffffffffffffffffffffff16021790555050565b60006003541161049357600080fd5b600160009054906101000a900473ffffffffffffffffffffffffffffffffffffffff1673ffffffffffffffffffffffffffffffffffffffff166323b872dd3330600354856104e19190610961565b6040518463ffffffff1660e01b81526004016104ff939291906109a3565b600060405180830381600087803b15801561051957600080fd5b505af115801561052d573d6000803e3d6000fd5b5050505061058381600560003373ffffffffffffffffffffffffffffffffffffffff1673ffffffffffffffffffffffffffffffffffffffff168152602001908152602001600020546107a490919063ffffffff16565b600560003373ffffffffffffffffffffffffffffffffffffffff1673ffffffffffffffffffffffffffffffffffffffff1681526020019081526020016000208190555050565b6105d161064c565b600073ffffffffffffffffffffffffffffffffffffffff168173ffffffffffffffffffffffffffffffffffffffff1603610640576040517f08c379a000000000000000000000000000000000000000000000000000000000815260040161063790610a5d565b60405180910390fd5b610649816106ca565b50565b6106546107ba565b73ffffffffffffffffffffffffffffffffffffffff166106726103ea565b73ffffffffffffffffffffffffffffffffffffffff16146106c8576040517f08c379a00000000000000000000000000000000000000000000000000000000081526004016106bf90610ac9565b60405180910390fd5b565b60008060009054906101000a900473ffffffffffffffffffffffffffffffffffffffff169050816000806101000a81548173ffffffffffffffffffffffffffffffffffffffff021916908373ffffffffffffffffffffffffffffffffffffffff1602179055508173ffffffffffffffffffffffffffffffffffffffff168173ffffffffffffffffffffffffffffffffffffffff167f8be0079c531659141344cd1fd0a4f28419497f9722a3daafe3b4186f6b6457e060405160405180910390a35050565b6000818361079c9190610ae9565b905092915050565b600081836107b29190610b1d565b905092915050565b600033905090565b600080fd5b6000819050919050565b6107da816107c7565b81146107e557600080fd5b50565b6000813590506107f7816107d1565b92915050565b600060208284031215610813576108126107c2565b5b6000610821848285016107e8565b91505092915050565b600073ffffffffffffffffffffffffffffffffffffffff82169050919050565b60006108558261082a565b9050919050565b6108658161084a565b811461087057600080fd5b50565b6000813590506108828161085c565b92915050565b60006020828403121561089e5761089d6107c2565b5b60006108ac84828501610873565b91505092915050565b6108be816107c7565b82525050565b60006020820190506108d960008301846108b5565b92915050565b6108e88161084a565b82525050565b600060208201905061090360008301846108df565b92915050565b600060408201905061091e60008301856108df565b61092b60208301846108b5565b9392505050565b7f4e487b7100000000000000000000000000000000000000000000000000000000600052601160045260246000fd5b600061096c826107c7565b9150610977836107c7565b9250828202610985816107c7565b9150828204841483151761099c5761099b610932565b5b5092915050565b60006060820190506109b860008301866108df565b6109c560208301856108df565b6109d260408301846108b5565b949350505050565b600082825260208201905092915050565b7f4f776e61626c653a206e6577206f776e657220697320746865207a65726f206160008201527f6464726573730000000000000000000000000000000000000000000000000000602082015250565b6000610a476026836109da565b9150610a52826109eb565b604082019050919050565b60006020820190508181036000830152610a7681610a3a565b9050919050565b7f4f776e61626c653a2063616c6c6572206973206e6f7420746865206f776e6572600082015250565b6000610ab36020836109da565b9150610abe82610a7d565b602082019050919050565b60006020820190508181036000830152610ae281610aa6565b9050919050565b6000610af4826107c7565b9150610aff836107c7565b9250828203905081811115610b1757610b16610932565b5b92915050565b6000610b28826107c7565b9150610b33836107c7565b9250828201905080821115610b4b57610b4a610932565b5b9291505056fea26469706673582212209f80233198b5aa6cc2f732a89f0e1d8ca8e8316468deae37b23a8d2a00b30b5c64736f6c63430008110033",
  "immutableReferences": {},
  "source": "// SPDX-License-Identifier: MIT\r\npragma solidity ^0.8.17;\r\n\r\nimport \"@openzeppelin/contracts/access/Ownable.sol\";\r\nimport \"@openzeppelin/contracts/utils/math/SafeMath.sol\";\r\n\r\ninterface FiubaCoinInterface {\r\n  function transferFrom(address _from, address _to, uint _amount) external;\r\n}\r\n\r\ninterface StickerInterface {\r\n  function createStickers(address _address, uint _amount) external;\r\n}\r\n\r\n/// @title  A Sticker Package implementation\r\n/// @author @mrti259/@saantim/@ovr4ulin\r\n/// @notice You can use this contract to buy sticker packages using FiubaCoins, and you can use your packages to get stickers\r\n/// @dev  You can set the FiubaCoin contract to buy packages and the Sticker contract to generate the stickers when you open a package\r\ncontract FiubaPackage is Ownable {\r\n  using SafeMath for uint;\r\n  address coinAddress;\r\n  address stickerAddress;\r\n  uint price;\r\n  uint stickersPerPackages = 5;\r\n  \r\n  mapping(address => uint) packagesFromUser;\r\n\r\n  /// @dev Verify price is a positive non-zero value\r\n  modifier withPriceSetted() {\r\n    require(price > 0);\r\n    _;\r\n  }\r\n\r\n  /// @notice Set an amount of stickers you gonna get per package\r\n  /// @dev This funtion sets the quantity of sticker per package and verify if the inserted amount as parameter is bigger than zero\r\n  /// @param _amount A new amount of stickers per package\r\n  function setStickersPerPackage(uint _amount) external onlyOwner {\r\n    require(_amount > 0);\r\n    stickersPerPackages = _amount;\r\n  }\r\n\r\n  /// @notice Set the price for one package\r\n  /// @dev Only the owner of this contract could change the price\r\n  /// @param _price New price of a package\r\n  function setPrice(uint _price) external onlyOwner {\r\n    price = _price * 10 ** 18; \r\n  }\r\n  \r\n  /// @notice Set the FiubaCoin contract address\r\n  /// @dev Only the owner of this contract could set this address\r\n  /// @param _coinAddress The FiubaCoin address to be setted\r\n  function setCoinAddress(address _coinAddress) external onlyOwner {\r\n    coinAddress = _coinAddress;\r\n  }\r\n\r\n  /// @notice Set the StickerAddress contract address\r\n  /// @dev Only the owner of this contract could set this address\r\n  /// @param _stickerAddress The Sticker address to be setted\r\n  function setStickerAddress(address _stickerAddress) external onlyOwner {\r\n    stickerAddress = _stickerAddress;\r\n  }\r\n\r\n  /// @notice You can buy N-quantity of packages using your FiubaCoins\r\n  /// @dev Tries to transfer from FiubaCoin address the necesary FiubaCoins to get the required packages\r\n  /// @param _quantity The quantity of required packages to buy\r\n  function buyPackages(uint _quantity) external withPriceSetted {\r\n    FiubaCoinInterface(coinAddress).transferFrom(\r\n      msg.sender,\r\n      address(this),\r\n      _quantity * price\r\n    );\r\n    packagesFromUser[msg.sender] = packagesFromUser[msg.sender].add(_quantity);\r\n  }\r\n\r\n  /// @notice You can open a package to get stickers\r\n  /// @dev If the user have packages, you can get Stickers from this function\r\n  function openPackage() external {\r\n    require(packagesFromUser[msg.sender] > 0);\r\n    StickerInterface(stickerAddress).createStickers(msg.sender, stickersPerPackages);\r\n    packagesFromUser[msg.sender] = packagesFromUser[msg.sender].sub(1);\r\n  }\r\n\r\n  /// @notice Get the amount of packages from an specify wallet\r\n  /// @dev Access to a mapping to get the number of packages associated to an address\r\n  /// @param _owner Owner of address wallet \r\n  /// @return amount Quantity of packages associated to a specify wallet\r\n  function getAmountOfPackagesFrom(address _owner) external view returns (uint) {\r\n    return packagesFromUser[_owner];\r\n  }\r\n}",
  "sourcePath": "D:\\repos\\fiuba-panini\\fiuba-panini\\dapp\\contracts\\FiubaPackage.sol",
  "compiler": {
    "name": "solc",
    "version": "0.8.17+commit.8df45f5f.Emscripten.clang"
  },
  "schemaVersion": "3.4.11",
  "updatedAt": "2022-12-03T04:16:57.030Z",
  "networkType": "ethereum",
  "devdoc": {
    "author": "@mrti259/@saantim/@ovr4ulin",
    "details": "You can set the FiubaCoin contract to buy packages and the Sticker contract to generate the stickers when you open a package",
    "kind": "dev",
    "methods": {
      "buyPackages(uint256)": {
        "details": "Tries to transfer from FiubaCoin address the necesary FiubaCoins to get the required packages",
        "params": {
          "_quantity": "The quantity of required packages to buy"
        }
      },
      "getAmountOfPackagesFrom(address)": {
        "details": "Access to a mapping to get the number of packages associated to an address",
        "params": {
          "_owner": "Owner of address wallet "
        },
        "returns": {
          "_0": "amount Quantity of packages associated to a specify wallet"
        }
      },
      "openPackage()": {
        "details": "If the user have packages, you can get Stickers from this function"
      },
      "owner()": {
        "details": "Returns the address of the current owner."
      },
      "renounceOwnership()": {
        "details": "Leaves the contract without owner. It will not be possible to call `onlyOwner` functions anymore. Can only be called by the current owner. NOTE: Renouncing ownership will leave the contract without an owner, thereby removing any functionality that is only available to the owner."
      },
      "setCoinAddress(address)": {
        "details": "Only the owner of this contract could set this address",
        "params": {
          "_coinAddress": "The FiubaCoin address to be setted"
        }
      },
      "setPrice(uint256)": {
        "details": "Only the owner of this contract could change the price",
        "params": {
          "_price": "New price of a package"
        }
      },
      "setStickerAddress(address)": {
        "details": "Only the owner of this contract could set this address",
        "params": {
          "_stickerAddress": "The Sticker address to be setted"
        }
      },
      "setStickersPerPackage(uint256)": {
        "details": "This funtion sets the quantity of sticker per package and verify if the inserted amount as parameter is bigger than zero",
        "params": {
          "_amount": "A new amount of stickers per package"
        }
      },
      "transferOwnership(address)": {
        "details": "Transfers ownership of the contract to a new account (`newOwner`). Can only be called by the current owner."
      }
    },
    "title": "A Sticker Package implementation",
    "version": 1
  },
  "userdoc": {
    "kind": "user",
    "methods": {
      "buyPackages(uint256)": {
        "notice": "You can buy N-quantity of packages using your FiubaCoins"
      },
      "getAmountOfPackagesFrom(address)": {
        "notice": "Get the amount of packages from an specify wallet"
      },
      "openPackage()": {
        "notice": "You can open a package to get stickers"
      },
      "setCoinAddress(address)": {
        "notice": "Set the FiubaCoin contract address"
      },
      "setPrice(uint256)": {
        "notice": "Set the price for one package"
      },
      "setStickerAddress(address)": {
        "notice": "Set the StickerAddress contract address"
      },
      "setStickersPerPackage(uint256)": {
        "notice": "Set an amount of stickers you gonna get per package"
      }
    },
    "notice": "You can use this contract to buy sticker packages using FiubaCoins, and you can use your packages to get stickers",
    "version": 1
  }
}