{
  "contractName": "FiubaExchange",
  "abi": [
    {
      "anonymous": false,
      "inputs": [
        {
          "indexed": true,
          "internalType": "address",
          "name": "owner",
          "type": "address"
        },
        {
          "indexed": true,
          "internalType": "address",
          "name": "approved",
          "type": "address"
        },
        {
          "indexed": true,
          "internalType": "uint256",
          "name": "tokenId",
          "type": "uint256"
        }
      ],
      "name": "Approval",
      "type": "event"
    },
    {
      "anonymous": false,
      "inputs": [
        {
          "indexed": true,
          "internalType": "address",
          "name": "owner",
          "type": "address"
        },
        {
          "indexed": true,
          "internalType": "address",
          "name": "operator",
          "type": "address"
        },
        {
          "indexed": false,
          "internalType": "bool",
          "name": "approved",
          "type": "bool"
        }
      ],
      "name": "ApprovalForAll",
      "type": "event"
    },
    {
      "anonymous": false,
      "inputs": [
        {
          "indexed": true,
          "internalType": "address",
          "name": "previousOwner",
          "type": "address"
        },
        {
          "indexed": true,
          "internalType": "address",
          "name": "newOwner",
          "type": "address"
        }
      ],
      "name": "OwnershipTransferred",
      "type": "event"
    },
    {
      "anonymous": false,
      "inputs": [
        {
          "indexed": true,
          "internalType": "address",
          "name": "from",
          "type": "address"
        },
        {
          "indexed": true,
          "internalType": "address",
          "name": "to",
          "type": "address"
        },
        {
          "indexed": true,
          "internalType": "uint256",
          "name": "tokenId",
          "type": "uint256"
        }
      ],
      "name": "Transfer",
      "type": "event"
    },
    {
      "inputs": [],
      "name": "URI",
      "outputs": [
        {
          "internalType": "string",
          "name": "",
          "type": "string"
        }
      ],
      "stateMutability": "view",
      "type": "function",
      "constant": true
    },
    {
      "inputs": [
        {
          "internalType": "address",
          "name": "to",
          "type": "address"
        },
        {
          "internalType": "uint256",
          "name": "tokenId",
          "type": "uint256"
        }
      ],
      "name": "approve",
      "outputs": [],
      "stateMutability": "nonpayable",
      "type": "function"
    },
    {
      "inputs": [
        {
          "internalType": "address",
          "name": "owner",
          "type": "address"
        }
      ],
      "name": "balanceOf",
      "outputs": [
        {
          "internalType": "uint256",
          "name": "",
          "type": "uint256"
        }
      ],
      "stateMutability": "view",
      "type": "function",
      "constant": true
    },
    {
      "inputs": [
        {
          "internalType": "address",
          "name": "packageOwner",
          "type": "address"
        },
        {
          "internalType": "uint256",
          "name": "quantity",
          "type": "uint256"
        }
      ],
      "name": "createStickers",
      "outputs": [],
      "stateMutability": "nonpayable",
      "type": "function"
    },
    {
      "inputs": [
        {
          "internalType": "uint256",
          "name": "",
          "type": "uint256"
        }
      ],
      "name": "exchanges",
      "outputs": [
        {
          "internalType": "address",
          "name": "owner",
          "type": "address"
        },
        {
          "internalType": "uint256",
          "name": "tokenIdToExchange",
          "type": "uint256"
        },
        {
          "internalType": "uint256",
          "name": "playerIdWanted",
          "type": "uint256"
        },
        {
          "internalType": "bool",
          "name": "active",
          "type": "bool"
        }
      ],
      "stateMutability": "view",
      "type": "function",
      "constant": true
    },
    {
      "inputs": [
        {
          "internalType": "uint256",
          "name": "tokenId",
          "type": "uint256"
        }
      ],
      "name": "getApproved",
      "outputs": [
        {
          "internalType": "address",
          "name": "",
          "type": "address"
        }
      ],
      "stateMutability": "view",
      "type": "function",
      "constant": true
    },
    {
      "inputs": [
        {
          "internalType": "uint256",
          "name": "stickerId",
          "type": "uint256"
        }
      ],
      "name": "getPlayerIdFromStickerId",
      "outputs": [
        {
          "internalType": "uint256",
          "name": "",
          "type": "uint256"
        }
      ],
      "stateMutability": "view",
      "type": "function",
      "constant": true
    },
    {
      "inputs": [
        {
          "internalType": "address",
          "name": "wallet",
          "type": "address"
        }
      ],
      "name": "getStickersFromWallet",
      "outputs": [
        {
          "internalType": "uint256[]",
          "name": "",
          "type": "uint256[]"
        }
      ],
      "stateMutability": "view",
      "type": "function",
      "constant": true
    },
    {
      "inputs": [
        {
          "internalType": "address",
          "name": "owner",
          "type": "address"
        },
        {
          "internalType": "address",
          "name": "operator",
          "type": "address"
        }
      ],
      "name": "isApprovedForAll",
      "outputs": [
        {
          "internalType": "bool",
          "name": "",
          "type": "bool"
        }
      ],
      "stateMutability": "view",
      "type": "function",
      "constant": true
    },
    {
      "inputs": [],
      "name": "mintPrice",
      "outputs": [
        {
          "internalType": "uint256",
          "name": "",
          "type": "uint256"
        }
      ],
      "stateMutability": "view",
      "type": "function",
      "constant": true
    },
    {
      "inputs": [],
      "name": "name",
      "outputs": [
        {
          "internalType": "string",
          "name": "",
          "type": "string"
        }
      ],
      "stateMutability": "view",
      "type": "function",
      "constant": true
    },
    {
      "inputs": [],
      "name": "numberOfExchanges",
      "outputs": [
        {
          "internalType": "uint256",
          "name": "",
          "type": "uint256"
        }
      ],
      "stateMutability": "view",
      "type": "function",
      "constant": true
    },
    {
      "inputs": [],
      "name": "owner",
      "outputs": [
        {
          "internalType": "address",
          "name": "",
          "type": "address"
        }
      ],
      "stateMutability": "view",
      "type": "function",
      "constant": true
    },
    {
      "inputs": [
        {
          "internalType": "uint256",
          "name": "tokenId",
          "type": "uint256"
        }
      ],
      "name": "ownerOf",
      "outputs": [
        {
          "internalType": "address",
          "name": "",
          "type": "address"
        }
      ],
      "stateMutability": "view",
      "type": "function",
      "constant": true
    },
    {
      "inputs": [
        {
          "internalType": "uint256",
          "name": "",
          "type": "uint256"
        }
      ],
      "name": "playerToURI",
      "outputs": [
        {
          "internalType": "string",
          "name": "",
          "type": "string"
        }
      ],
      "stateMutability": "view",
      "type": "function",
      "constant": true
    },
    {
      "inputs": [],
      "name": "renounceOwnership",
      "outputs": [],
      "stateMutability": "nonpayable",
      "type": "function"
    },
    {
      "inputs": [
        {
          "internalType": "address",
          "name": "from",
          "type": "address"
        },
        {
          "internalType": "address",
          "name": "to",
          "type": "address"
        },
        {
          "internalType": "uint256",
          "name": "tokenId",
          "type": "uint256"
        }
      ],
      "name": "safeTransferFrom",
      "outputs": [],
      "stateMutability": "nonpayable",
      "type": "function"
    },
    {
      "inputs": [
        {
          "internalType": "address",
          "name": "from",
          "type": "address"
        },
        {
          "internalType": "address",
          "name": "to",
          "type": "address"
        },
        {
          "internalType": "uint256",
          "name": "tokenId",
          "type": "uint256"
        },
        {
          "internalType": "bytes",
          "name": "data",
          "type": "bytes"
        }
      ],
      "name": "safeTransferFrom",
      "outputs": [],
      "stateMutability": "nonpayable",
      "type": "function"
    },
    {
      "inputs": [
        {
          "internalType": "address",
          "name": "operator",
          "type": "address"
        },
        {
          "internalType": "bool",
          "name": "approved",
          "type": "bool"
        }
      ],
      "name": "setApprovalForAll",
      "outputs": [],
      "stateMutability": "nonpayable",
      "type": "function"
    },
    {
      "inputs": [
        {
          "internalType": "address",
          "name": "newPackageAddress",
          "type": "address"
        }
      ],
      "name": "setPackageAddress",
      "outputs": [],
      "stateMutability": "nonpayable",
      "type": "function"
    },
    {
      "inputs": [
        {
          "internalType": "uint256",
          "name": "",
          "type": "uint256"
        }
      ],
      "name": "stickerToPlayer",
      "outputs": [
        {
          "internalType": "uint256",
          "name": "",
          "type": "uint256"
        }
      ],
      "stateMutability": "view",
      "type": "function",
      "constant": true
    },
    {
      "inputs": [
        {
          "internalType": "bytes4",
          "name": "interfaceId",
          "type": "bytes4"
        }
      ],
      "name": "supportsInterface",
      "outputs": [
        {
          "internalType": "bool",
          "name": "",
          "type": "bool"
        }
      ],
      "stateMutability": "view",
      "type": "function",
      "constant": true
    },
    {
      "inputs": [],
      "name": "symbol",
      "outputs": [
        {
          "internalType": "string",
          "name": "",
          "type": "string"
        }
      ],
      "stateMutability": "view",
      "type": "function",
      "constant": true
    },
    {
      "inputs": [
        {
          "internalType": "uint256",
          "name": "tokenId",
          "type": "uint256"
        }
      ],
      "name": "tokenURI",
      "outputs": [
        {
          "internalType": "string",
          "name": "",
          "type": "string"
        }
      ],
      "stateMutability": "view",
      "type": "function",
      "constant": true
    },
    {
      "inputs": [],
      "name": "totalMints",
      "outputs": [
        {
          "internalType": "uint256",
          "name": "",
          "type": "uint256"
        }
      ],
      "stateMutability": "view",
      "type": "function",
      "constant": true
    },
    {
      "inputs": [
        {
          "internalType": "address",
          "name": "from",
          "type": "address"
        },
        {
          "internalType": "address",
          "name": "to",
          "type": "address"
        },
        {
          "internalType": "uint256",
          "name": "tokenId",
          "type": "uint256"
        }
      ],
      "name": "transferFrom",
      "outputs": [],
      "stateMutability": "nonpayable",
      "type": "function"
    },
    {
      "inputs": [
        {
          "internalType": "address",
          "name": "newOwner",
          "type": "address"
        }
      ],
      "name": "transferOwnership",
      "outputs": [],
      "stateMutability": "nonpayable",
      "type": "function"
    },
    {
      "inputs": [
        {
          "internalType": "uint256",
          "name": "tokenId",
          "type": "uint256"
        },
        {
          "internalType": "uint256",
          "name": "playerId",
          "type": "uint256"
        }
      ],
      "name": "iWantToExchange",
      "outputs": [],
      "stateMutability": "nonpayable",
      "type": "function"
    },
    {
      "inputs": [
        {
          "internalType": "uint256",
          "name": "exchangeId",
          "type": "uint256"
        }
      ],
      "name": "acceptExchange",
      "outputs": [],
      "stateMutability": "nonpayable",
      "type": "function"
    },
    {
      "inputs": [
        {
          "internalType": "uint256",
          "name": "exchangeId",
          "type": "uint256"
        }
      ],
      "name": "cancelExchange",
      "outputs": [],
      "stateMutability": "nonpayable",
      "type": "function"
    },
    {
      "inputs": [],
      "name": "activeExchanges",
      "outputs": [
        {
          "internalType": "uint256",
          "name": "",
          "type": "uint256"
        }
      ],
      "stateMutability": "view",
      "type": "function",
      "constant": true
    },
    {
      "inputs": [],
      "name": "getAllExchanges",
      "outputs": [
        {
          "internalType": "uint256[]",
          "name": "",
          "type": "uint256[]"
        }
      ],
      "stateMutability": "view",
      "type": "function",
      "constant": true
    }
  ],
  "bytecode": "0x6080604052600060075566038d7ea4c680006008556040518060800160405280606081526020016200421d60609139600990816200003e919062000458565b506102c7600d556000600f553480156200005757600080fd5b506040518060400160405280600c81526020017f5161746172537469636b657200000000000000000000000000000000000000008152506040518060400160405280600381526020017f51535400000000000000000000000000000000000000000000000000000000008152508160009081620000d5919062000458565b508060019081620000e7919062000458565b5050506200010a620000fe6200011060201b60201c565b6200011860201b60201c565b6200053f565b600033905090565b6000600660009054906101000a900473ffffffffffffffffffffffffffffffffffffffff16905081600660006101000a81548173ffffffffffffffffffffffffffffffffffffffff021916908373ffffffffffffffffffffffffffffffffffffffff1602179055508173ffffffffffffffffffffffffffffffffffffffff168173ffffffffffffffffffffffffffffffffffffffff167f8be0079c531659141344cd1fd0a4f28419497f9722a3daafe3b4186f6b6457e060405160405180910390a35050565b600081519050919050565b7f4e487b7100000000000000000000000000000000000000000000000000000000600052604160045260246000fd5b7f4e487b7100000000000000000000000000000000000000000000000000000000600052602260045260246000fd5b600060028204905060018216806200026057607f821691505b60208210810362000276576200027562000218565b5b50919050565b60008190508160005260206000209050919050565b60006020601f8301049050919050565b600082821b905092915050565b600060088302620002e07fffffffffffffffffffffffffffffffffffffffffffffffffffffffffffffffff82620002a1565b620002ec8683620002a1565b95508019841693508086168417925050509392505050565b6000819050919050565b6000819050919050565b600062000339620003336200032d8462000304565b6200030e565b62000304565b9050919050565b6000819050919050565b620003558362000318565b6200036d620003648262000340565b848454620002ae565b825550505050565b600090565b6200038462000375565b620003918184846200034a565b505050565b5b81811015620003b957620003ad6000826200037a565b60018101905062000397565b5050565b601f8211156200040857620003d2816200027c565b620003dd8462000291565b81016020851015620003ed578190505b62000405620003fc8562000291565b83018262000396565b50505b505050565b600082821c905092915050565b60006200042d600019846008026200040d565b1980831691505092915050565b60006200044883836200041a565b9150826002028217905092915050565b6200046382620001de565b67ffffffffffffffff8111156200047f576200047e620001e9565b5b6200048b825462000247565b62000498828285620003bd565b600060209050601f831160018114620004d05760008415620004bb578287015190505b620004c785826200043a565b86555062000537565b601f198416620004e0866200027c565b60005b828110156200050a57848901518255600182019150602085019450602081019050620004e3565b868310156200052a578489015162000526601f8916826200041a565b8355505b6001600288020188555050505b505050505050565b613cce806200054f6000396000f3fe608060405234801561001057600080fd5b50600436106101f05760003560e01c806371af1dd41161010f578063a90f45ef116100a2578063d49abd6311610071578063d49abd63146105bc578063e985e9c5146105d8578063f2fde38b14610608578063f98c4e2c14610624576101f0565b8063a90f45ef14610536578063b7be8d3c14610554578063b88d4fde14610570578063c87b56dd1461058c576101f0565b8063900a7423116100de578063900a7423146104b057806395d89b41146104cc57806399098bbe146104ea578063a22cb4651461051a576101f0565b806371af1dd4146104165780637b804b4f14610446578063808e1c2b146104765780638da5cb5b14610492576101f0565b806337c03fb6116101875780636817c76c116101565780636817c76c146103a057806370a08231146103be578063714f25c2146103ee578063715018a61461040c576101f0565b806337c03fb61461031a57806342842e0e146103385780635d3d08a8146103545780636352211e14610370576101f0565b80631141d7de116101c35780631141d7de1461028f5780631f21bfbf146102ad57806323b872dd146102cb5780632839fc29146102e7576101f0565b806301ffc9a7146101f557806306fdde0314610225578063081812fc14610243578063095ea7b314610273575b600080fd5b61020f600480360381019061020a919061295e565b610654565b60405161021c91906129a6565b60405180910390f35b61022d610736565b60405161023a9190612a51565b60405180910390f35b61025d60048036038101906102589190612aa9565b6107c8565b60405161026a9190612b17565b60405180910390f35b61028d60048036038101906102889190612b5e565b61080e565b005b610297610925565b6040516102a49190612a51565b60405180910390f35b6102b56109b3565b6040516102c29190612bad565b60405180910390f35b6102e560048036038101906102e09190612bc8565b6109b9565b005b61030160048036038101906102fc9190612aa9565b610a19565b6040516103119493929190612c1b565b60405180910390f35b610322610a76565b60405161032f9190612d1e565b60405180910390f35b610352600480360381019061034d9190612bc8565b610b54565b005b61036e60048036038101906103699190612aa9565b610b74565b005b61038a60048036038101906103859190612aa9565b610c93565b6040516103979190612b17565b60405180910390f35b6103a8610d19565b6040516103b59190612bad565b60405180910390f35b6103d860048036038101906103d39190612d40565b610d1f565b6040516103e59190612bad565b60405180910390f35b6103f6610dd6565b6040516104039190612bad565b60405180910390f35b610414610e42565b005b610430600480360381019061042b9190612d40565b610e56565b60405161043d9190612d1e565b60405180910390f35b610460600480360381019061045b9190612aa9565b610f43565b60405161046d9190612bad565b60405180910390f35b610490600480360381019061048b9190612aa9565b610f60565b005b61049a611156565b6040516104a79190612b17565b60405180910390f35b6104ca60048036038101906104c59190612d6d565b611180565b005b6104d46112e1565b6040516104e19190612a51565b60405180910390f35b61050460048036038101906104ff9190612aa9565b611373565b6040516105119190612bad565b60405180910390f35b610534600480360381019061052f9190612dd9565b61138b565b005b61053e6113a1565b60405161054b9190612bad565b60405180910390f35b61056e60048036038101906105699190612b5e565b6113a7565b005b61058a60048036038101906105859190612f4e565b61142d565b005b6105a660048036038101906105a19190612aa9565b61148f565b6040516105b39190612a51565b60405180910390f35b6105d660048036038101906105d19190612d40565b6114f7565b005b6105f260048036038101906105ed9190612fd1565b611543565b6040516105ff91906129a6565b60405180910390f35b610622600480360381019061061d9190612d40565b6115d7565b005b61063e60048036038101906106399190612aa9565b61165a565b60405161064b9190612a51565b60405180910390f35b60007f80ac58cd000000000000000000000000000000000000000000000000000000007bffffffffffffffffffffffffffffffffffffffffffffffffffffffff1916827bffffffffffffffffffffffffffffffffffffffffffffffffffffffff1916148061071f57507f5b5e139f000000000000000000000000000000000000000000000000000000007bffffffffffffffffffffffffffffffffffffffffffffffffffffffff1916827bffffffffffffffffffffffffffffffffffffffffffffffffffffffff1916145b8061072f575061072e826116fa565b5b9050919050565b60606000805461074590613040565b80601f016020809104026020016040519081016040528092919081815260200182805461077190613040565b80156107be5780601f10610793576101008083540402835291602001916107be565b820191906000526020600020905b8154815290600101906020018083116107a157829003601f168201915b5050505050905090565b60006107d382611764565b6004600083815260200190815260200160002060009054906101000a900473ffffffffffffffffffffffffffffffffffffffff169050919050565b600061081982610c93565b90508073ffffffffffffffffffffffffffffffffffffffff168373ffffffffffffffffffffffffffffffffffffffff1603610889576040517f08c379a0000000000000000000000000000000000000000000000000000000008152600401610880906130e3565b60405180910390fd5b8073ffffffffffffffffffffffffffffffffffffffff166108a86117af565b73ffffffffffffffffffffffffffffffffffffffff1614806108d757506108d6816108d16117af565b611543565b5b610916576040517f08c379a000000000000000000000000000000000000000000000000000000000815260040161090d90613175565b60405180910390fd5b61092083836117b7565b505050565b6009805461093290613040565b80601f016020809104026020016040519081016040528092919081815260200182805461095e90613040565b80156109ab5780601f10610980576101008083540402835291602001916109ab565b820191906000526020600020905b81548152906001019060200180831161098e57829003601f168201915b505050505081565b60075481565b6109ca6109c46117af565b82611870565b610a09576040517f08c379a0000000000000000000000000000000000000000000000000000000008152600401610a0090613207565b60405180910390fd5b610a14838383611905565b505050565b600e6020528060005260406000206000915090508060000160009054906101000a900473ffffffffffffffffffffffffffffffffffffffff16908060010154908060020154908060030160009054906101000a900460ff16905084565b6060600080610a83610dd6565b67ffffffffffffffff811115610a9c57610a9b612e23565b5b604051908082528060200260200182016040528015610aca5781602001602082028036833780820191505090505b50905060005b600f54811015610b4b5760011515600e600083815260200190815260200160002060030160009054906101000a900460ff16151503610b385780828481518110610b1d57610b1c613227565b5b6020026020010181815250508280610b3490613285565b9350505b8080610b4390613285565b915050610ad0565b50809250505090565b610b6f8383836040518060200160405280600081525061142d565b505050565b80600f54811115610bba576040517f08c379a0000000000000000000000000000000000000000000000000000000008152600401610bb190613319565b60405180910390fd5b813373ffffffffffffffffffffffffffffffffffffffff16600e600083815260200190815260200160002060000160009054906101000a900473ffffffffffffffffffffffffffffffffffffffff1673ffffffffffffffffffffffffffffffffffffffff1614610c5f576040517f08c379a0000000000000000000000000000000000000000000000000000000008152600401610c56906133ab565b60405180910390fd5b6000600e600085815260200190815260200160002060030160006101000a81548160ff021916908315150217905550505050565b600080610c9f83611bfe565b9050600073ffffffffffffffffffffffffffffffffffffffff168173ffffffffffffffffffffffffffffffffffffffff1603610d10576040517f08c379a0000000000000000000000000000000000000000000000000000000008152600401610d0790613417565b60405180910390fd5b80915050919050565b60085481565b60008073ffffffffffffffffffffffffffffffffffffffff168273ffffffffffffffffffffffffffffffffffffffff1603610d8f576040517f08c379a0000000000000000000000000000000000000000000000000000000008152600401610d86906134a9565b60405180910390fd5b600360008373ffffffffffffffffffffffffffffffffffffffff1673ffffffffffffffffffffffffffffffffffffffff168152602001908152602001600020549050919050565b6000806000905060005b600f548111610e3a5760011515600e600083815260200190815260200160002060030160009054906101000a900460ff16151503610e27578180610e2390613285565b9250505b8080610e3290613285565b915050610de0565b508091505090565b610e4a611c3b565b610e546000611cb9565b565b60606000610e6383610d1f565b67ffffffffffffffff811115610e7c57610e7b612e23565b5b604051908082528060200260200182016040528015610eaa5781602001602082028036833780820191505090505b5090506000805b600754811015610f38578473ffffffffffffffffffffffffffffffffffffffff16610edb82610c93565b73ffffffffffffffffffffffffffffffffffffffff1603610f255780838381518110610f0a57610f09613227565b5b6020026020010181815250508180610f2190613285565b9250505b8080610f3090613285565b915050610eb1565b508192505050919050565b6000600a6000838152602001908152602001600020549050919050565b80600f54811115610fa6576040517f08c379a0000000000000000000000000000000000000000000000000000000008152600401610f9d90613319565b60405180910390fd5b81600e600082815260200190815260200160002060030160009054906101000a900460ff1661100a576040517f08c379a000000000000000000000000000000000000000000000000000000000815260040161100190613515565b60405180910390fd5b6000600e60008581526020019081526020016000206040518060800160405290816000820160009054906101000a900473ffffffffffffffffffffffffffffffffffffffff1673ffffffffffffffffffffffffffffffffffffffff1673ffffffffffffffffffffffffffffffffffffffff16815260200160018201548152602001600282015481526020016003820160009054906101000a900460ff161515151581525050905060008160400151905060008260200151905060008360000151905060003390506000806110de8684611d7f565b9150915081611122576040517f08c379a0000000000000000000000000000000000000000000000000000000008152600401611119906135a7565b60405180910390fd5b61112d848487611905565b611138838583611905565b61114185611e10565b61114a81611e10565b50505050505050505050565b6000600660009054906101000a900473ffffffffffffffffffffffffffffffffffffffff16905090565b813373ffffffffffffffffffffffffffffffffffffffff166111a182610c93565b73ffffffffffffffffffffffffffffffffffffffff16146111f7576040517f08c379a00000000000000000000000000000000000000000000000000000000081526004016111ee90613639565b60405180910390fd5b60405180608001604052803373ffffffffffffffffffffffffffffffffffffffff16815260200184815260200183815260200160011515815250600e6000600f54815260200190815260200160002060008201518160000160006101000a81548173ffffffffffffffffffffffffffffffffffffffff021916908373ffffffffffffffffffffffffffffffffffffffff160217905550602082015181600101556040820151816002015560608201518160030160006101000a81548160ff021916908315150217905550905050600f60008154809291906112d790613285565b9190505550505050565b6060600180546112f090613040565b80601f016020809104026020016040519081016040528092919081815260200182805461131c90613040565b80156113695780601f1061133e57610100808354040283529160200191611369565b820191906000526020600020905b81548152906001019060200180831161134c57829003601f168201915b5050505050905090565b600a6020528060005260406000206000915090505481565b61139d6113966117af565b8383611eb4565b5050565b600f5481565b600c60009054906101000a900473ffffffffffffffffffffffffffffffffffffffff1673ffffffffffffffffffffffffffffffffffffffff163373ffffffffffffffffffffffffffffffffffffffff161461140157600080fd5b60005b818110156114285761141583612020565b808061142090613285565b915050611404565b505050565b61143e6114386117af565b83611870565b61147d576040517f08c379a000000000000000000000000000000000000000000000000000000000815260040161147490613207565b60405180910390fd5b6114898484848461206c565b50505050565b606061149a82611764565b60006114a46120c8565b905060008151116114c457604051806020016040528060008152506114ef565b806114ce846120df565b6040516020016114df929190613695565b6040516020818303038152906040525b915050919050565b6114ff611c3b565b80600c60006101000a81548173ffffffffffffffffffffffffffffffffffffffff021916908373ffffffffffffffffffffffffffffffffffffffff16021790555050565b6000600560008473ffffffffffffffffffffffffffffffffffffffff1673ffffffffffffffffffffffffffffffffffffffff16815260200190815260200160002060008373ffffffffffffffffffffffffffffffffffffffff1673ffffffffffffffffffffffffffffffffffffffff16815260200190815260200160002060009054906101000a900460ff16905092915050565b6115df611c3b565b600073ffffffffffffffffffffffffffffffffffffffff168173ffffffffffffffffffffffffffffffffffffffff160361164e576040517f08c379a00000000000000000000000000000000000000000000000000000000081526004016116459061372b565b60405180910390fd5b61165781611cb9565b50565b600b602052806000526040600020600091509050805461167990613040565b80601f01602080910402602001604051908101604052809291908181526020018280546116a590613040565b80156116f25780601f106116c7576101008083540402835291602001916116f2565b820191906000526020600020905b8154815290600101906020018083116116d557829003601f168201915b505050505081565b60007f01ffc9a7000000000000000000000000000000000000000000000000000000007bffffffffffffffffffffffffffffffffffffffffffffffffffffffff1916827bffffffffffffffffffffffffffffffffffffffffffffffffffffffff1916149050919050565b61176d816121ad565b6117ac576040517f08c379a00000000000000000000000000000000000000000000000000000000081526004016117a390613417565b60405180910390fd5b50565b600033905090565b816004600083815260200190815260200160002060006101000a81548173ffffffffffffffffffffffffffffffffffffffff021916908373ffffffffffffffffffffffffffffffffffffffff160217905550808273ffffffffffffffffffffffffffffffffffffffff1661182a83610c93565b73ffffffffffffffffffffffffffffffffffffffff167f8c5be1e5ebec7d5bd14f71427d1e84f3dd0314c0f7b2291e5b200ac8c7c3b92560405160405180910390a45050565b60008061187c83610c93565b90508073ffffffffffffffffffffffffffffffffffffffff168473ffffffffffffffffffffffffffffffffffffffff1614806118be57506118bd8185611543565b5b806118fc57508373ffffffffffffffffffffffffffffffffffffffff166118e4846107c8565b73ffffffffffffffffffffffffffffffffffffffff16145b91505092915050565b8273ffffffffffffffffffffffffffffffffffffffff1661192582610c93565b73ffffffffffffffffffffffffffffffffffffffff161461197b576040517f08c379a0000000000000000000000000000000000000000000000000000000008152600401611972906137bd565b60405180910390fd5b600073ffffffffffffffffffffffffffffffffffffffff168273ffffffffffffffffffffffffffffffffffffffff16036119ea576040517f08c379a00000000000000000000000000000000000000000000000000000000081526004016119e19061384f565b60405180910390fd5b6119f783838360016121ee565b8273ffffffffffffffffffffffffffffffffffffffff16611a1782610c93565b73ffffffffffffffffffffffffffffffffffffffff1614611a6d576040517f08c379a0000000000000000000000000000000000000000000000000000000008152600401611a64906137bd565b60405180910390fd5b6004600082815260200190815260200160002060006101000a81549073ffffffffffffffffffffffffffffffffffffffff02191690556001600360008573ffffffffffffffffffffffffffffffffffffffff1673ffffffffffffffffffffffffffffffffffffffff168152602001908152602001600020600082825403925050819055506001600360008473ffffffffffffffffffffffffffffffffffffffff1673ffffffffffffffffffffffffffffffffffffffff16815260200190815260200160002060008282540192505081905550816002600083815260200190815260200160002060006101000a81548173ffffffffffffffffffffffffffffffffffffffff021916908373ffffffffffffffffffffffffffffffffffffffff160217905550808273ffffffffffffffffffffffffffffffffffffffff168473ffffffffffffffffffffffffffffffffffffffff167fddf252ad1be2c89b69c2b068fc378daa952ba7f163c4a11628f55a4df523b3ef60405160405180910390a4611bf98383836001612314565b505050565b60006002600083815260200190815260200160002060009054906101000a900473ffffffffffffffffffffffffffffffffffffffff169050919050565b611c436117af565b73ffffffffffffffffffffffffffffffffffffffff16611c61611156565b73ffffffffffffffffffffffffffffffffffffffff1614611cb7576040517f08c379a0000000000000000000000000000000000000000000000000000000008152600401611cae906138bb565b60405180910390fd5b565b6000600660009054906101000a900473ffffffffffffffffffffffffffffffffffffffff16905081600660006101000a81548173ffffffffffffffffffffffffffffffffffffffff021916908373ffffffffffffffffffffffffffffffffffffffff1602179055508173ffffffffffffffffffffffffffffffffffffffff168173ffffffffffffffffffffffffffffffffffffffff167f8be0079c531659141344cd1fd0a4f28419497f9722a3daafe3b4186f6b6457e060405160405180910390a35050565b6000806000611d8d84610e56565b905060005b8151811015611dff5785611dbf838381518110611db257611db1613227565b5b6020026020010151610f43565b03611dec576001828281518110611dd957611dd8613227565b5b6020026020010151935093505050611e09565b8080611df790613285565b915050611d92565b5060008092509250505b9250929050565b60005b600f548111611eb05760011515600e600083815260200190815260200160002060030160009054906101000a900460ff161515148015611e68575081600e600083815260200190815260200160002060010154145b15611e9d576000600e600083815260200190815260200160002060030160006101000a81548160ff0219169083151502179055505b8080611ea890613285565b915050611e13565b5050565b8173ffffffffffffffffffffffffffffffffffffffff168373ffffffffffffffffffffffffffffffffffffffff1603611f22576040517f08c379a0000000000000000000000000000000000000000000000000000000008152600401611f1990613927565b60405180910390fd5b80600560008573ffffffffffffffffffffffffffffffffffffffff1673ffffffffffffffffffffffffffffffffffffffff16815260200190815260200160002060008473ffffffffffffffffffffffffffffffffffffffff1673ffffffffffffffffffffffffffffffffffffffff16815260200190815260200160002060006101000a81548160ff0219169083151502179055508173ffffffffffffffffffffffffffffffffffffffff168373ffffffffffffffffffffffffffffffffffffffff167f17307eab39ab6107e8899845ad3d59bd9653f200f220920489ca2b5937696c318360405161201391906129a6565b60405180910390a3505050565b6000600754905061202f61231a565b600a6000838152602001908152602001600020819055506007600081548092919061205990613285565b9190505550612068828261235f565b5050565b612077848484611905565b6120838484848461237d565b6120c2576040517f08c379a00000000000000000000000000000000000000000000000000000000081526004016120b9906139b9565b60405180910390fd5b50505050565b606060405180602001604052806000815250905090565b6060600060016120ee84612504565b01905060008167ffffffffffffffff81111561210d5761210c612e23565b5b6040519080825280601f01601f19166020018201604052801561213f5781602001600182028036833780820191505090505b509050600082602001820190505b6001156121a2578080600190039150507f3031323334353637383961626364656600000000000000000000000000000000600a86061a8153600a8581612196576121956139d9565b5b0494506000850361214d575b819350505050919050565b60008073ffffffffffffffffffffffffffffffffffffffff166121cf83611bfe565b73ffffffffffffffffffffffffffffffffffffffff1614159050919050565b600181111561230e57600073ffffffffffffffffffffffffffffffffffffffff168473ffffffffffffffffffffffffffffffffffffffff16146122825780600360008673ffffffffffffffffffffffffffffffffffffffff1673ffffffffffffffffffffffffffffffffffffffff168152602001908152602001600020600082825461227a9190613a08565b925050819055505b600073ffffffffffffffffffffffffffffffffffffffff168373ffffffffffffffffffffffffffffffffffffffff161461230d5780600360008573ffffffffffffffffffffffffffffffffffffffff1673ffffffffffffffffffffffffffffffffffffffff16815260200190815260200160002060008282546123059190613a3c565b925050819055505b5b50505050565b50505050565b6000806007546040516020016123309190613a91565b6040516020818303038152906040528051906020012060001c9050600d54816123599190613aac565b91505090565b612379828260405180602001604052806000815250612657565b5050565b600061239e8473ffffffffffffffffffffffffffffffffffffffff166126b2565b156124f7578373ffffffffffffffffffffffffffffffffffffffff1663150b7a026123c76117af565b8786866040518563ffffffff1660e01b81526004016123e99493929190613b32565b6020604051808303816000875af192505050801561242557506040513d601f19601f820116820180604052508101906124229190613b93565b60015b6124a7573d8060008114612455576040519150601f19603f3d011682016040523d82523d6000602084013e61245a565b606091505b50600081510361249f576040517f08c379a0000000000000000000000000000000000000000000000000000000008152600401612496906139b9565b60405180910390fd5b805181602001fd5b63150b7a0260e01b7bffffffffffffffffffffffffffffffffffffffffffffffffffffffff1916817bffffffffffffffffffffffffffffffffffffffffffffffffffffffff1916149150506124fc565b600190505b949350505050565b600080600090507a184f03e93ff9f4daa797ed6e38ed64bf6a1f0100000000000000008310612562577a184f03e93ff9f4daa797ed6e38ed64bf6a1f0100000000000000008381612558576125576139d9565b5b0492506040810190505b6d04ee2d6d415b85acef8100000000831061259f576d04ee2d6d415b85acef81000000008381612595576125946139d9565b5b0492506020810190505b662386f26fc1000083106125ce57662386f26fc1000083816125c4576125c36139d9565b5b0492506010810190505b6305f5e10083106125f7576305f5e10083816125ed576125ec6139d9565b5b0492506008810190505b612710831061261c576127108381612612576126116139d9565b5b0492506004810190505b6064831061263f5760648381612635576126346139d9565b5b0492506002810190505b600a831061264e576001810190505b80915050919050565b61266183836126d5565b61266e600084848461237d565b6126ad576040517f08c379a00000000000000000000000000000000000000000000000000000000081526004016126a4906139b9565b60405180910390fd5b505050565b6000808273ffffffffffffffffffffffffffffffffffffffff163b119050919050565b600073ffffffffffffffffffffffffffffffffffffffff168273ffffffffffffffffffffffffffffffffffffffff1603612744576040517f08c379a000000000000000000000000000000000000000000000000000000000815260040161273b90613c0c565b60405180910390fd5b61274d816121ad565b1561278d576040517f08c379a000000000000000000000000000000000000000000000000000000000815260040161278490613c78565b60405180910390fd5b61279b6000838360016121ee565b6127a4816121ad565b156127e4576040517f08c379a00000000000000000000000000000000000000000000000000000000081526004016127db90613c78565b60405180910390fd5b6001600360008473ffffffffffffffffffffffffffffffffffffffff1673ffffffffffffffffffffffffffffffffffffffff16815260200190815260200160002060008282540192505081905550816002600083815260200190815260200160002060006101000a81548173ffffffffffffffffffffffffffffffffffffffff021916908373ffffffffffffffffffffffffffffffffffffffff160217905550808273ffffffffffffffffffffffffffffffffffffffff16600073ffffffffffffffffffffffffffffffffffffffff167fddf252ad1be2c89b69c2b068fc378daa952ba7f163c4a11628f55a4df523b3ef60405160405180910390a46128ee600083836001612314565b5050565b6000604051905090565b600080fd5b600080fd5b60007fffffffff0000000000000000000000000000000000000000000000000000000082169050919050565b61293b81612906565b811461294657600080fd5b50565b60008135905061295881612932565b92915050565b600060208284031215612974576129736128fc565b5b600061298284828501612949565b91505092915050565b60008115159050919050565b6129a08161298b565b82525050565b60006020820190506129bb6000830184612997565b92915050565b600081519050919050565b600082825260208201905092915050565b60005b838110156129fb5780820151818401526020810190506129e0565b60008484015250505050565b6000601f19601f8301169050919050565b6000612a23826129c1565b612a2d81856129cc565b9350612a3d8185602086016129dd565b612a4681612a07565b840191505092915050565b60006020820190508181036000830152612a6b8184612a18565b905092915050565b6000819050919050565b612a8681612a73565b8114612a9157600080fd5b50565b600081359050612aa381612a7d565b92915050565b600060208284031215612abf57612abe6128fc565b5b6000612acd84828501612a94565b91505092915050565b600073ffffffffffffffffffffffffffffffffffffffff82169050919050565b6000612b0182612ad6565b9050919050565b612b1181612af6565b82525050565b6000602082019050612b2c6000830184612b08565b92915050565b612b3b81612af6565b8114612b4657600080fd5b50565b600081359050612b5881612b32565b92915050565b60008060408385031215612b7557612b746128fc565b5b6000612b8385828601612b49565b9250506020612b9485828601612a94565b9150509250929050565b612ba781612a73565b82525050565b6000602082019050612bc26000830184612b9e565b92915050565b600080600060608486031215612be157612be06128fc565b5b6000612bef86828701612b49565b9350506020612c0086828701612b49565b9250506040612c1186828701612a94565b9150509250925092565b6000608082019050612c306000830187612b08565b612c3d6020830186612b9e565b612c4a6040830185612b9e565b612c576060830184612997565b95945050505050565b600081519050919050565b600082825260208201905092915050565b6000819050602082019050919050565b612c9581612a73565b82525050565b6000612ca78383612c8c565b60208301905092915050565b6000602082019050919050565b6000612ccb82612c60565b612cd58185612c6b565b9350612ce083612c7c565b8060005b83811015612d11578151612cf88882612c9b565b9750612d0383612cb3565b925050600181019050612ce4565b5085935050505092915050565b60006020820190508181036000830152612d388184612cc0565b905092915050565b600060208284031215612d5657612d556128fc565b5b6000612d6484828501612b49565b91505092915050565b60008060408385031215612d8457612d836128fc565b5b6000612d9285828601612a94565b9250506020612da385828601612a94565b9150509250929050565b612db68161298b565b8114612dc157600080fd5b50565b600081359050612dd381612dad565b92915050565b60008060408385031215612df057612def6128fc565b5b6000612dfe85828601612b49565b9250506020612e0f85828601612dc4565b9150509250929050565b600080fd5b600080fd5b7f4e487b7100000000000000000000000000000000000000000000000000000000600052604160045260246000fd5b612e5b82612a07565b810181811067ffffffffffffffff82111715612e7a57612e79612e23565b5b80604052505050565b6000612e8d6128f2565b9050612e998282612e52565b919050565b600067ffffffffffffffff821115612eb957612eb8612e23565b5b612ec282612a07565b9050602081019050919050565b82818337600083830152505050565b6000612ef1612eec84612e9e565b612e83565b905082815260208101848484011115612f0d57612f0c612e1e565b5b612f18848285612ecf565b509392505050565b600082601f830112612f3557612f34612e19565b5b8135612f45848260208601612ede565b91505092915050565b60008060008060808587031215612f6857612f676128fc565b5b6000612f7687828801612b49565b9450506020612f8787828801612b49565b9350506040612f9887828801612a94565b925050606085013567ffffffffffffffff811115612fb957612fb8612901565b5b612fc587828801612f20565b91505092959194509250565b60008060408385031215612fe857612fe76128fc565b5b6000612ff685828601612b49565b925050602061300785828601612b49565b9150509250929050565b7f4e487b7100000000000000000000000000000000000000000000000000000000600052602260045260246000fd5b6000600282049050600182168061305857607f821691505b60208210810361306b5761306a613011565b5b50919050565b7f4552433732313a20617070726f76616c20746f2063757272656e74206f776e6560008201527f7200000000000000000000000000000000000000000000000000000000000000602082015250565b60006130cd6021836129cc565b91506130d882613071565b604082019050919050565b600060208201905081810360008301526130fc816130c0565b9050919050565b7f4552433732313a20617070726f76652063616c6c6572206973206e6f7420746f60008201527f6b656e206f776e6572206f7220617070726f76656420666f7220616c6c000000602082015250565b600061315f603d836129cc565b915061316a82613103565b604082019050919050565b6000602082019050818103600083015261318e81613152565b9050919050565b7f4552433732313a2063616c6c6572206973206e6f7420746f6b656e206f776e6560008201527f72206f7220617070726f76656400000000000000000000000000000000000000602082015250565b60006131f1602d836129cc565b91506131fc82613195565b604082019050919050565b60006020820190508181036000830152613220816131e4565b9050919050565b7f4e487b7100000000000000000000000000000000000000000000000000000000600052603260045260246000fd5b7f4e487b7100000000000000000000000000000000000000000000000000000000600052601160045260246000fd5b600061329082612a73565b91507fffffffffffffffffffffffffffffffffffffffffffffffffffffffffffffffff82036132c2576132c1613256565b5b600182019050919050565b7f65786368616e6765496420646f65736e27742065786973747300000000000000600082015250565b60006133036019836129cc565b915061330e826132cd565b602082019050919050565b60006020820190508181036000830152613332816132f6565b9050919050565b7f6d6573736167652073656e646572206973206e6f742065786368616e6765206f60008201527f776e657200000000000000000000000000000000000000000000000000000000602082015250565b60006133956024836129cc565b91506133a082613339565b604082019050919050565b600060208201905081810360008301526133c481613388565b9050919050565b7f4552433732313a20696e76616c696420746f6b656e2049440000000000000000600082015250565b60006134016018836129cc565b915061340c826133cb565b602082019050919050565b60006020820190508181036000830152613430816133f4565b9050919050565b7f4552433732313a2061646472657373207a65726f206973206e6f74206120766160008201527f6c6964206f776e65720000000000000000000000000000000000000000000000602082015250565b60006134936029836129cc565b915061349e82613437565b604082019050919050565b600060208201905081810360008301526134c281613486565b9050919050565b7f65786368616e6765206973206e6f742061637469766500000000000000000000600082015250565b60006134ff6016836129cc565b915061350a826134c9565b602082019050919050565b6000602082019050818103600083015261352e816134f2565b9050919050565b7f54686520706572736f6e2077686f20697320616363657074696e67206578636860008201527f616e6765206861736e27742077616e74656420706c6179657200000000000000602082015250565b60006135916039836129cc565b915061359c82613535565b604082019050919050565b600060208201905081810360008301526135c081613584565b9050919050565b7f6d6573736167652073656e646572206973206e6f7420737469636b6572206f7760008201527f6e65720000000000000000000000000000000000000000000000000000000000602082015250565b60006136236023836129cc565b915061362e826135c7565b604082019050919050565b6000602082019050818103600083015261365281613616565b9050919050565b600081905092915050565b600061366f826129c1565b6136798185613659565b93506136898185602086016129dd565b80840191505092915050565b60006136a18285613664565b91506136ad8284613664565b91508190509392505050565b7f4f776e61626c653a206e6577206f776e657220697320746865207a65726f206160008201527f6464726573730000000000000000000000000000000000000000000000000000602082015250565b60006137156026836129cc565b9150613720826136b9565b604082019050919050565b6000602082019050818103600083015261374481613708565b9050919050565b7f4552433732313a207472616e736665722066726f6d20696e636f72726563742060008201527f6f776e6572000000000000000000000000000000000000000000000000000000602082015250565b60006137a76025836129cc565b91506137b28261374b565b604082019050919050565b600060208201905081810360008301526137d68161379a565b9050919050565b7f4552433732313a207472616e7366657220746f20746865207a65726f2061646460008201527f7265737300000000000000000000000000000000000000000000000000000000602082015250565b60006138396024836129cc565b9150613844826137dd565b604082019050919050565b600060208201905081810360008301526138688161382c565b9050919050565b7f4f776e61626c653a2063616c6c6572206973206e6f7420746865206f776e6572600082015250565b60006138a56020836129cc565b91506138b08261386f565b602082019050919050565b600060208201905081810360008301526138d481613898565b9050919050565b7f4552433732313a20617070726f766520746f2063616c6c657200000000000000600082015250565b60006139116019836129cc565b915061391c826138db565b602082019050919050565b6000602082019050818103600083015261394081613904565b9050919050565b7f4552433732313a207472616e7366657220746f206e6f6e20455243373231526560008201527f63656976657220696d706c656d656e7465720000000000000000000000000000602082015250565b60006139a36032836129cc565b91506139ae82613947565b604082019050919050565b600060208201905081810360008301526139d281613996565b9050919050565b7f4e487b7100000000000000000000000000000000000000000000000000000000600052601260045260246000fd5b6000613a1382612a73565b9150613a1e83612a73565b9250828203905081811115613a3657613a35613256565b5b92915050565b6000613a4782612a73565b9150613a5283612a73565b9250828201905080821115613a6a57613a69613256565b5b92915050565b6000819050919050565b613a8b613a8682612a73565b613a70565b82525050565b6000613a9d8284613a7a565b60208201915081905092915050565b6000613ab782612a73565b9150613ac283612a73565b925082613ad257613ad16139d9565b5b828206905092915050565b600081519050919050565b600082825260208201905092915050565b6000613b0482613add565b613b0e8185613ae8565b9350613b1e8185602086016129dd565b613b2781612a07565b840191505092915050565b6000608082019050613b476000830187612b08565b613b546020830186612b08565b613b616040830185612b9e565b8181036060830152613b738184613af9565b905095945050505050565b600081519050613b8d81612932565b92915050565b600060208284031215613ba957613ba86128fc565b5b6000613bb784828501613b7e565b91505092915050565b7f4552433732313a206d696e7420746f20746865207a65726f2061646472657373600082015250565b6000613bf66020836129cc565b9150613c0182613bc0565b602082019050919050565b60006020820190508181036000830152613c2581613be9565b9050919050565b7f4552433732313a20746f6b656e20616c7265616479206d696e74656400000000600082015250565b6000613c62601c836129cc565b9150613c6d82613c2c565b602082019050919050565b60006020820190508181036000830152613c9181613c55565b905091905056fea26469706673582212208b54d2c3d4c1c0c55462c299fd83d92048ea9990aa3cc70a1ba1c3b58738685764736f6c6343000811003368747470733a2f2f6261667962656966716d677966793462793367706d7335736476336674336b6e63636d6a737178667171757578656d6f687477666d3779376e77612e697066732e647765622e6c696e6b2f6d657461646174612e6a736f6e",
  "immutableReferences": {},
  "source": "//SPDX-License-Identifier: MIT\r\npragma solidity ^0.8.17;\r\n\r\nimport \"./FiubaStickers.sol\";\r\n\r\n/// @title A Sticker Exchange's Implementation\r\n/// @author @mrti259/@saantim/@ovr4ulin\r\n/// @notice You can use this contract to swap stickers between differt wallets\r\n/// @dev You can create an exchange where you offer one sticker token and requier another one. Then another person could accept this exchange if meet the requierments. \r\ncontract FiubaExchange is FiubaSticker {\r\n    struct exchange {\r\n        address owner;\r\n        uint tokenIdToExchange;\r\n        uint playerIdWanted;\r\n        bool active;\r\n    }\r\n\r\n    mapping(uint256 => exchange) public exchanges;\r\n    uint public numberOfExchanges = 0;    \r\n\r\n    /// @dev This modifier verifies if the exchange is valid\r\n    /// @param exchangeId It's the unique-number of the exchange to verify\r\n    modifier exchageExist(uint exchangeId){\r\n        require(exchangeId <= numberOfExchanges, \"exchangeId doesn't exists\");\r\n        _;\r\n    }\r\n\r\n    /// @dev This modifier verifies if the msg.sender is the owner of the sticker.\r\n    /// @param stickerId It's the unique-number of the NFT Sticker to verify\r\n    modifier onlyOwnerOfSticker(uint stickerId){\r\n        require(ownerOf(stickerId) == msg.sender, \"message sender is not sticker owner\");\r\n        _;\r\n    }\r\n\r\n    /// @dev This modifier verifies if the msg.sender is the owner of the exchange.\r\n    /// @param exchangeId It's the unique-number of the exchange to verify\r\n    modifier onlyOwnerOfExchange(uint exchangeId){\r\n        require(exchanges[exchangeId].owner == msg.sender, \"message sender is not exchange owner\");\r\n        _;\r\n    }\r\n\r\n    /// @dev This modifier verifies if the exchange is active\r\n    /// @param exchangeId It's the unique-number of the exchange to verify\r\n    modifier isActive(uint exchangeId){\r\n        require(exchanges[exchangeId].active, \"exchange is not active\");\r\n        _;\r\n    }\r\n\r\n    /// @notice You can use this function to initialize an exchange\r\n    /// @dev Add to the exchange mapping a new exchange\r\n    /// @param tokenId It's the token to exchange\r\n    /// @param playerId It's the playerId wanted\r\n    function iWantToExchange(uint tokenId, uint playerId) public onlyOwnerOfSticker(tokenId) {\r\n        exchanges[numberOfExchanges] = exchange(msg.sender, tokenId, playerId, true);\r\n        numberOfExchanges++;\r\n    }\r\n\r\n    /// @notice You can use this function to accept an exchange \r\n    /// @dev If the exchanges exists and is an active exchange this function will verify if the message sender could accept it, and in that case, this function will execute the exchange of the sticker using the sticker transfer method \r\n    /// @param exchangeId It's the unique-number of the exchange to be accepted\r\n    function acceptExchange(uint exchangeId) public exchageExist(exchangeId) isActive(exchangeId){\r\n        exchange memory e = exchanges[exchangeId];\r\n        uint playerIdWanted = e.playerIdWanted;\r\n        uint tokenIdToExchange = e.tokenIdToExchange;\r\n        address owner = e.owner;\r\n        address interested = msg.sender;\r\n\r\n        (bool wantedPlayer, uint tokenIdWanted) = hasWantedPlayer(playerIdWanted, interested);\r\n        require(wantedPlayer, \"The person who is accepting exchange hasn't wanted player\");\r\n\r\n        _transfer(owner, interested, tokenIdToExchange);\r\n        _transfer(interested, owner, tokenIdWanted);\r\n        cancelExchangeWithExchangeId(tokenIdToExchange);\r\n        cancelExchangeWithExchangeId(tokenIdWanted);\r\n    }\r\n\r\n    /// @dev You can use this function to cancel an Exchange. After that, the exchange can not be accepted\r\n    /// @param tokenId It's the unique-number of the exchange to be canceled\r\n    function cancelExchangeWithExchangeId(uint tokenId) private {\r\n        for (uint i = 0; i <= numberOfExchanges; i++){\r\n            if (exchanges[i].active == true && exchanges[i].tokenIdToExchange == tokenId){\r\n                exchanges[i].active = false;\r\n            }\r\n        }\r\n    }\r\n\r\n    /// @notice You can cancel an exchange\r\n    /// @dev Changes the active status of an exchange to false\r\n    /// @param exchangeId It's the unique-number of the exchange to cancel\r\n    function cancelExchange(uint exchangeId) public exchageExist(exchangeId) onlyOwnerOfExchange(exchangeId){\r\n        exchanges[exchangeId].active = false;\r\n    }\r\n\r\n    /// @notice Shows the active exchanges\r\n    /// @dev Count by the exchanges mapping all the active exchanges and returns the quantity number of active exchanges\r\n    /// @return quantity It's the amount of actives exchanges\r\n    function activeExchanges() public view returns(uint) {\r\n        uint counter = 0;\r\n\r\n        for (uint i = 0; i <= numberOfExchanges; i++){\r\n            if (exchanges[i].active == true){\r\n                counter++;\r\n            }\r\n        }\r\n        return counter;\r\n    }\r\n\r\n    /// @notice You can use this function to get an array of all exchanges' Ids\r\n    /// @dev This function returns only active exchanges\r\n    /// @return array It's an array with all exchanges' Ids\r\n    function getAllExchanges() public view returns(uint[] memory) {\r\n        uint counter = 0;\r\n        uint[] memory result = new uint[](activeExchanges());\r\n\r\n        for (uint i = 0; i < numberOfExchanges; i++){\r\n            if (exchanges[i].active == true){\r\n                result[counter] = i;\r\n                counter++;\r\n            }\r\n        }\r\n\r\n        return result;\r\n    }\r\n\r\n    /// @dev Verify if a wallet have a specify playerId into his stickers. Search this playerId calling getPlayerIdFromStickerId function through all his stickers\r\n    /// @param playerIdWanted It's the searched playerId \r\n    /// @param wallet It's the address where the playerId gonna be looked by\r\n    /// @return result A positive or negative expression of the search result\r\n    /// @return stickerId If could find the wanted player it returns the stickerId, otherwise returns 0\r\n    function hasWantedPlayer(uint playerIdWanted, address wallet) internal view returns (bool, uint) {\r\n        uint256[] memory stickers = getStickersFromWallet(wallet);\r\n\r\n        for (uint i = 0; i < stickers.length; i++){\r\n            if (getPlayerIdFromStickerId(stickers[i]) == playerIdWanted){\r\n                return (true, stickers[i]);\r\n            }\r\n        }\r\n        return (false, 0);\r\n    }\r\n}",
  "sourcePath": "D:\\repos\\fiuba-panini\\fiuba-panini\\dapp\\contracts\\FiubaExchange.sol",
  "compiler": {
    "name": "solc",
    "version": "0.8.17+commit.8df45f5f.Emscripten.clang"
  },
  "schemaVersion": "3.4.11",
  "updatedAt": "2022-12-03T04:16:57.020Z",
  "networkType": "ethereum",
  "devdoc": {
    "author": "@mrti259/@saantim/@ovr4ulin",
    "details": "You can create an exchange where you offer one sticker token and requier another one. Then another person could accept this exchange if meet the requierments. ",
    "kind": "dev",
    "methods": {
      "acceptExchange(uint256)": {
        "details": "If the exchanges exists and is an active exchange this function will verify if the message sender could accept it, and in that case, this function will execute the exchange of the sticker using the sticker transfer method ",
        "params": {
          "exchangeId": "It's the unique-number of the exchange to be accepted"
        }
      },
      "activeExchanges()": {
        "details": "Count by the exchanges mapping all the active exchanges and returns the quantity number of active exchanges",
        "returns": {
          "_0": "quantity It's the amount of actives exchanges"
        }
      },
      "approve(address,uint256)": {
        "details": "See {IERC721-approve}."
      },
      "balanceOf(address)": {
        "details": "See {IERC721-balanceOf}."
      },
      "cancelExchange(uint256)": {
        "details": "Changes the active status of an exchange to false",
        "params": {
          "exchangeId": "It's the unique-number of the exchange to cancel"
        }
      },
      "createStickers(address,uint256)": {
        "details": "This function can be called only for Package",
        "params": {
          "packageOwner": "It's the owner of the stickers",
          "quantity": "It's the number of stickers to be minted"
        }
      },
      "getAllExchanges()": {
        "details": "This function returns only active exchanges",
        "returns": {
          "_0": "array It's an array with all exchanges' Ids"
        }
      },
      "getApproved(uint256)": {
        "details": "See {IERC721-getApproved}."
      },
      "getPlayerIdFromStickerId(uint256)": {
        "details": "A mapping index-access to get the playerId by his stickerId",
        "params": {
          "stickerId": "This function returns the player associated with this stickerId"
        },
        "returns": {
          "_0": "playerId It's the unique-number of the player associated to the stickerId"
        }
      },
      "getStickersFromWallet(address)": {
        "details": "This function go through all the minted tokens and push into a list each token associated to a specify wallet",
        "params": {
          "wallet": "This function will search all the associated tokens to this address"
        },
        "returns": {
          "_0": "stickers Returns a collection of all the associated tokens to the wallet used as parameter"
        }
      },
      "iWantToExchange(uint256,uint256)": {
        "details": "Add to the exchange mapping a new exchange",
        "params": {
          "playerId": "It's the playerId wanted",
          "tokenId": "It's the token to exchange"
        }
      },
      "isApprovedForAll(address,address)": {
        "details": "See {IERC721-isApprovedForAll}."
      },
      "name()": {
        "details": "See {IERC721Metadata-name}."
      },
      "owner()": {
        "details": "Returns the address of the current owner."
      },
      "ownerOf(uint256)": {
        "details": "See {IERC721-ownerOf}."
      },
      "renounceOwnership()": {
        "details": "Leaves the contract without owner. It will not be possible to call `onlyOwner` functions anymore. Can only be called by the current owner. NOTE: Renouncing ownership will leave the contract without an owner, thereby removing any functionality that is only available to the owner."
      },
      "safeTransferFrom(address,address,uint256)": {
        "details": "See {IERC721-safeTransferFrom}."
      },
      "safeTransferFrom(address,address,uint256,bytes)": {
        "details": "See {IERC721-safeTransferFrom}."
      },
      "setApprovalForAll(address,bool)": {
        "details": "See {IERC721-setApprovalForAll}."
      },
      "setPackageAddress(address)": {
        "details": "From here you can set the package contract. This contract gonna be necesary to use the onlyPackage() modifier",
        "params": {
          "newPackageAddress": "a package contract address"
        }
      },
      "supportsInterface(bytes4)": {
        "details": "See {IERC165-supportsInterface}."
      },
      "symbol()": {
        "details": "See {IERC721Metadata-symbol}."
      },
      "tokenURI(uint256)": {
        "details": "See {IERC721Metadata-tokenURI}."
      },
      "transferFrom(address,address,uint256)": {
        "details": "See {IERC721-transferFrom}."
      },
      "transferOwnership(address)": {
        "details": "Transfers ownership of the contract to a new account (`newOwner`). Can only be called by the current owner."
      }
    },
    "title": "A Sticker Exchange's Implementation",
    "version": 1
  },
  "userdoc": {
    "kind": "user",
    "methods": {
      "acceptExchange(uint256)": {
        "notice": "You can use this function to accept an exchange "
      },
      "activeExchanges()": {
        "notice": "Shows the active exchanges"
      },
      "cancelExchange(uint256)": {
        "notice": "You can cancel an exchange"
      },
      "createStickers(address,uint256)": {
        "notice": "You can use this function to mint Stickers "
      },
      "getAllExchanges()": {
        "notice": "You can use this function to get an array of all exchanges' Ids"
      },
      "getPlayerIdFromStickerId(uint256)": {
        "notice": "You can use this function to know sticker's player"
      },
      "getStickersFromWallet(address)": {
        "notice": "You can get a list of all sticker associated to a wallet"
      },
      "iWantToExchange(uint256,uint256)": {
        "notice": "You can use this function to initialize an exchange"
      },
      "setPackageAddress(address)": {
        "notice": "You can set the package contract where you gonna get your stickers from"
      }
    },
    "notice": "You can use this contract to swap stickers between differt wallets",
    "version": 1
  }
}