{
  "contractName": "FiubaCoin",
  "abi": [
    {
      "inputs": [],
      "stateMutability": "nonpayable",
      "type": "constructor"
    },
    {
      "anonymous": false,
      "inputs": [
        {
          "indexed": true,
          "internalType": "address",
          "name": "owner",
          "type": "address"
        },
        {
          "indexed": true,
          "internalType": "address",
          "name": "spender",
          "type": "address"
        },
        {
          "indexed": false,
          "internalType": "uint256",
          "name": "value",
          "type": "uint256"
        }
      ],
      "name": "Approval",
      "type": "event"
    },
    {
      "anonymous": false,
      "inputs": [
        {
          "indexed": true,
          "internalType": "address",
          "name": "from",
          "type": "address"
        },
        {
          "indexed": true,
          "internalType": "address",
          "name": "to",
          "type": "address"
        },
        {
          "indexed": false,
          "internalType": "uint256",
          "name": "value",
          "type": "uint256"
        }
      ],
      "name": "Transfer",
      "type": "event"
    },
    {
      "inputs": [
        {
          "internalType": "address",
          "name": "owner",
          "type": "address"
        },
        {
          "internalType": "address",
          "name": "spender",
          "type": "address"
        }
      ],
      "name": "allowance",
      "outputs": [
        {
          "internalType": "uint256",
          "name": "",
          "type": "uint256"
        }
      ],
      "stateMutability": "view",
      "type": "function",
      "constant": true
    },
    {
      "inputs": [
        {
          "internalType": "address",
          "name": "spender",
          "type": "address"
        },
        {
          "internalType": "uint256",
          "name": "amount",
          "type": "uint256"
        }
      ],
      "name": "approve",
      "outputs": [
        {
          "internalType": "bool",
          "name": "",
          "type": "bool"
        }
      ],
      "stateMutability": "nonpayable",
      "type": "function"
    },
    {
      "inputs": [
        {
          "internalType": "address",
          "name": "account",
          "type": "address"
        }
      ],
      "name": "balanceOf",
      "outputs": [
        {
          "internalType": "uint256",
          "name": "",
          "type": "uint256"
        }
      ],
      "stateMutability": "view",
      "type": "function",
      "constant": true
    },
    {
      "inputs": [],
      "name": "decimals",
      "outputs": [
        {
          "internalType": "uint8",
          "name": "",
          "type": "uint8"
        }
      ],
      "stateMutability": "view",
      "type": "function",
      "constant": true
    },
    {
      "inputs": [
        {
          "internalType": "address",
          "name": "spender",
          "type": "address"
        },
        {
          "internalType": "uint256",
          "name": "subtractedValue",
          "type": "uint256"
        }
      ],
      "name": "decreaseAllowance",
      "outputs": [
        {
          "internalType": "bool",
          "name": "",
          "type": "bool"
        }
      ],
      "stateMutability": "nonpayable",
      "type": "function"
    },
    {
      "inputs": [
        {
          "internalType": "address",
          "name": "spender",
          "type": "address"
        },
        {
          "internalType": "uint256",
          "name": "addedValue",
          "type": "uint256"
        }
      ],
      "name": "increaseAllowance",
      "outputs": [
        {
          "internalType": "bool",
          "name": "",
          "type": "bool"
        }
      ],
      "stateMutability": "nonpayable",
      "type": "function"
    },
    {
      "inputs": [],
      "name": "mintPrice",
      "outputs": [
        {
          "internalType": "uint256",
          "name": "",
          "type": "uint256"
        }
      ],
      "stateMutability": "view",
      "type": "function",
      "constant": true
    },
    {
      "inputs": [],
      "name": "name",
      "outputs": [
        {
          "internalType": "string",
          "name": "",
          "type": "string"
        }
      ],
      "stateMutability": "view",
      "type": "function",
      "constant": true
    },
    {
      "inputs": [],
      "name": "symbol",
      "outputs": [
        {
          "internalType": "string",
          "name": "",
          "type": "string"
        }
      ],
      "stateMutability": "view",
      "type": "function",
      "constant": true
    },
    {
      "inputs": [],
      "name": "totalSupply",
      "outputs": [
        {
          "internalType": "uint256",
          "name": "",
          "type": "uint256"
        }
      ],
      "stateMutability": "view",
      "type": "function",
      "constant": true
    },
    {
      "inputs": [
        {
          "internalType": "address",
          "name": "to",
          "type": "address"
        },
        {
          "internalType": "uint256",
          "name": "amount",
          "type": "uint256"
        }
      ],
      "name": "transfer",
      "outputs": [
        {
          "internalType": "bool",
          "name": "",
          "type": "bool"
        }
      ],
      "stateMutability": "nonpayable",
      "type": "function"
    },
    {
      "inputs": [
        {
          "internalType": "address",
          "name": "from",
          "type": "address"
        },
        {
          "internalType": "address",
          "name": "to",
          "type": "address"
        },
        {
          "internalType": "uint256",
          "name": "amount",
          "type": "uint256"
        }
      ],
      "name": "transferFrom",
      "outputs": [
        {
          "internalType": "bool",
          "name": "",
          "type": "bool"
        }
      ],
      "stateMutability": "nonpayable",
      "type": "function"
    },
    {
      "inputs": [],
      "name": "withdraw",
      "outputs": [],
      "stateMutability": "nonpayable",
      "type": "function"
    },
    {
      "inputs": [
        {
          "internalType": "uint256",
          "name": "quantity",
          "type": "uint256"
        }
      ],
      "name": "getFiubaCoin",
      "outputs": [],
      "stateMutability": "payable",
      "type": "function",
      "payable": true
    }
  ],
  "bytecode": "0x608060405266038d7ea4c680006006553480156200001c57600080fd5b506040518060400160405280600981526020017f4669756261436f696e00000000000000000000000000000000000000000000008152506040518060400160405280600381526020017f464955000000000000000000000000000000000000000000000000000000000081525081600390816200009a919062000370565b508060049081620000ac919062000370565b50505033600560006101000a81548173ffffffffffffffffffffffffffffffffffffffff021916908373ffffffffffffffffffffffffffffffffffffffff16021790555062000457565b600081519050919050565b7f4e487b7100000000000000000000000000000000000000000000000000000000600052604160045260246000fd5b7f4e487b7100000000000000000000000000000000000000000000000000000000600052602260045260246000fd5b600060028204905060018216806200017857607f821691505b6020821081036200018e576200018d62000130565b5b50919050565b60008190508160005260206000209050919050565b60006020601f8301049050919050565b600082821b905092915050565b600060088302620001f87fffffffffffffffffffffffffffffffffffffffffffffffffffffffffffffffff82620001b9565b620002048683620001b9565b95508019841693508086168417925050509392505050565b6000819050919050565b6000819050919050565b6000620002516200024b62000245846200021c565b62000226565b6200021c565b9050919050565b6000819050919050565b6200026d8362000230565b620002856200027c8262000258565b848454620001c6565b825550505050565b600090565b6200029c6200028d565b620002a981848462000262565b505050565b5b81811015620002d157620002c560008262000292565b600181019050620002af565b5050565b601f8211156200032057620002ea8162000194565b620002f584620001a9565b8101602085101562000305578190505b6200031d6200031485620001a9565b830182620002ae565b50505b505050565b600082821c905092915050565b6000620003456000198460080262000325565b1980831691505092915050565b600062000360838362000332565b9150826002028217905092915050565b6200037b82620000f6565b67ffffffffffffffff81111562000397576200039662000101565b5b620003a382546200015f565b620003b0828285620002d5565b600060209050601f831160018114620003e85760008415620003d3578287015190505b620003df858262000352565b8655506200044f565b601f198416620003f88662000194565b60005b828110156200042257848901518255600182019150602085019450602081019050620003fb565b868310156200044257848901516200043e601f89168262000332565b8355505b6001600288020188555050505b505050505050565b6116cd80620004676000396000f3fe6080604052600436106100dd5760003560e01c80633ccfd60b1161007f57806395d89b411161005957806395d89b41146102b5578063a457c2d7146102e0578063a9059cbb1461031d578063dd62ed3e1461035a576100dd565b80633ccfd60b146102365780636817c76c1461024d57806370a0823114610278576100dd565b806323b872dd116100bb57806323b872dd14610175578063313ce567146101b257806334c50720146101dd57806339509351146101f9576100dd565b806306fdde03146100e2578063095ea7b31461010d57806318160ddd1461014a575b600080fd5b3480156100ee57600080fd5b506100f7610397565b6040516101049190610e63565b60405180910390f35b34801561011957600080fd5b50610134600480360381019061012f9190610f1e565b610429565b6040516101419190610f79565b60405180910390f35b34801561015657600080fd5b5061015f61044c565b60405161016c9190610fa3565b60405180910390f35b34801561018157600080fd5b5061019c60048036038101906101979190610fbe565b610456565b6040516101a99190610f79565b60405180910390f35b3480156101be57600080fd5b506101c7610485565b6040516101d4919061102d565b60405180910390f35b6101f760048036038101906101f29190611048565b61048e565b005b34801561020557600080fd5b50610220600480360381019061021b9190610f1e565b6104fd565b60405161022d9190610f79565b60405180910390f35b34801561024257600080fd5b5061024b610534565b005b34801561025957600080fd5b5061026261059f565b60405161026f9190610fa3565b60405180910390f35b34801561028457600080fd5b5061029f600480360381019061029a9190611075565b6105a5565b6040516102ac9190610fa3565b60405180910390f35b3480156102c157600080fd5b506102ca6105ed565b6040516102d79190610e63565b60405180910390f35b3480156102ec57600080fd5b5061030760048036038101906103029190610f1e565b61067f565b6040516103149190610f79565b60405180910390f35b34801561032957600080fd5b50610344600480360381019061033f9190610f1e565b6106f6565b6040516103519190610f79565b60405180910390f35b34801561036657600080fd5b50610381600480360381019061037c91906110a2565b610719565b60405161038e9190610fa3565b60405180910390f35b6060600380546103a690611111565b80601f01602080910402602001604051908101604052809291908181526020018280546103d290611111565b801561041f5780601f106103f45761010080835404028352916020019161041f565b820191906000526020600020905b81548152906001019060200180831161040257829003601f168201915b5050505050905090565b6000806104346107a0565b90506104418185856107a8565b600191505092915050565b6000600254905090565b6000806104616107a0565b905061046e858285610971565b6104798585856109fd565b60019150509392505050565b60006012905090565b346006548261049d9190611171565b146104dd576040517f08c379a00000000000000000000000000000000000000000000000000000000081526004016104d4906111ff565b60405180910390fd5b6104fa33670de0b6b3a7640000836104f59190611171565b610c73565b50565b6000806105086107a0565b905061052981858561051a8589610719565b610524919061121f565b6107a8565b600191505092915050565b600560009054906101000a900473ffffffffffffffffffffffffffffffffffffffff1673ffffffffffffffffffffffffffffffffffffffff166108fc479081150290604051600060405180830381858888f1935050505015801561059c573d6000803e3d6000fd5b50565b60065481565b60008060008373ffffffffffffffffffffffffffffffffffffffff1673ffffffffffffffffffffffffffffffffffffffff168152602001908152602001600020549050919050565b6060600480546105fc90611111565b80601f016020809104026020016040519081016040528092919081815260200182805461062890611111565b80156106755780601f1061064a57610100808354040283529160200191610675565b820191906000526020600020905b81548152906001019060200180831161065857829003601f168201915b5050505050905090565b60008061068a6107a0565b905060006106988286610719565b9050838110156106dd576040517f08c379a00000000000000000000000000000000000000000000000000000000081526004016106d4906112c5565b60405180910390fd5b6106ea82868684036107a8565b60019250505092915050565b6000806107016107a0565b905061070e8185856109fd565b600191505092915050565b6000600160008473ffffffffffffffffffffffffffffffffffffffff1673ffffffffffffffffffffffffffffffffffffffff16815260200190815260200160002060008373ffffffffffffffffffffffffffffffffffffffff1673ffffffffffffffffffffffffffffffffffffffff16815260200190815260200160002054905092915050565b600033905090565b600073ffffffffffffffffffffffffffffffffffffffff168373ffffffffffffffffffffffffffffffffffffffff1603610817576040517f08c379a000000000000000000000000000000000000000000000000000000000815260040161080e90611357565b60405180910390fd5b600073ffffffffffffffffffffffffffffffffffffffff168273ffffffffffffffffffffffffffffffffffffffff1603610886576040517f08c379a000000000000000000000000000000000000000000000000000000000815260040161087d906113e9565b60405180910390fd5b80600160008573ffffffffffffffffffffffffffffffffffffffff1673ffffffffffffffffffffffffffffffffffffffff16815260200190815260200160002060008473ffffffffffffffffffffffffffffffffffffffff1673ffffffffffffffffffffffffffffffffffffffff168152602001908152602001600020819055508173ffffffffffffffffffffffffffffffffffffffff168373ffffffffffffffffffffffffffffffffffffffff167f8c5be1e5ebec7d5bd14f71427d1e84f3dd0314c0f7b2291e5b200ac8c7c3b925836040516109649190610fa3565b60405180910390a3505050565b600061097d8484610719565b90507fffffffffffffffffffffffffffffffffffffffffffffffffffffffffffffffff81146109f757818110156109e9576040517f08c379a00000000000000000000000000000000000000000000000000000000081526004016109e090611455565b60405180910390fd5b6109f684848484036107a8565b5b50505050565b600073ffffffffffffffffffffffffffffffffffffffff168373ffffffffffffffffffffffffffffffffffffffff1603610a6c576040517f08c379a0000000000000000000000000000000000000000000000000000000008152600401610a63906114e7565b60405180910390fd5b600073ffffffffffffffffffffffffffffffffffffffff168273ffffffffffffffffffffffffffffffffffffffff1603610adb576040517f08c379a0000000000000000000000000000000000000000000000000000000008152600401610ad290611579565b60405180910390fd5b610ae6838383610dc9565b60008060008573ffffffffffffffffffffffffffffffffffffffff1673ffffffffffffffffffffffffffffffffffffffff16815260200190815260200160002054905081811015610b6c576040517f08c379a0000000000000000000000000000000000000000000000000000000008152600401610b639061160b565b60405180910390fd5b8181036000808673ffffffffffffffffffffffffffffffffffffffff1673ffffffffffffffffffffffffffffffffffffffff16815260200190815260200160002081905550816000808573ffffffffffffffffffffffffffffffffffffffff1673ffffffffffffffffffffffffffffffffffffffff168152602001908152602001600020600082825401925050819055508273ffffffffffffffffffffffffffffffffffffffff168473ffffffffffffffffffffffffffffffffffffffff167fddf252ad1be2c89b69c2b068fc378daa952ba7f163c4a11628f55a4df523b3ef84604051610c5a9190610fa3565b60405180910390a3610c6d848484610dce565b50505050565b600073ffffffffffffffffffffffffffffffffffffffff168273ffffffffffffffffffffffffffffffffffffffff1603610ce2576040517f08c379a0000000000000000000000000000000000000000000000000000000008152600401610cd990611677565b60405180910390fd5b610cee60008383610dc9565b8060026000828254610d00919061121f565b92505081905550806000808473ffffffffffffffffffffffffffffffffffffffff1673ffffffffffffffffffffffffffffffffffffffff168152602001908152602001600020600082825401925050819055508173ffffffffffffffffffffffffffffffffffffffff16600073ffffffffffffffffffffffffffffffffffffffff167fddf252ad1be2c89b69c2b068fc378daa952ba7f163c4a11628f55a4df523b3ef83604051610db19190610fa3565b60405180910390a3610dc560008383610dce565b5050565b505050565b505050565b600081519050919050565b600082825260208201905092915050565b60005b83811015610e0d578082015181840152602081019050610df2565b60008484015250505050565b6000601f19601f8301169050919050565b6000610e3582610dd3565b610e3f8185610dde565b9350610e4f818560208601610def565b610e5881610e19565b840191505092915050565b60006020820190508181036000830152610e7d8184610e2a565b905092915050565b600080fd5b600073ffffffffffffffffffffffffffffffffffffffff82169050919050565b6000610eb582610e8a565b9050919050565b610ec581610eaa565b8114610ed057600080fd5b50565b600081359050610ee281610ebc565b92915050565b6000819050919050565b610efb81610ee8565b8114610f0657600080fd5b50565b600081359050610f1881610ef2565b92915050565b60008060408385031215610f3557610f34610e85565b5b6000610f4385828601610ed3565b9250506020610f5485828601610f09565b9150509250929050565b60008115159050919050565b610f7381610f5e565b82525050565b6000602082019050610f8e6000830184610f6a565b92915050565b610f9d81610ee8565b82525050565b6000602082019050610fb86000830184610f94565b92915050565b600080600060608486031215610fd757610fd6610e85565b5b6000610fe586828701610ed3565b9350506020610ff686828701610ed3565b925050604061100786828701610f09565b9150509250925092565b600060ff82169050919050565b61102781611011565b82525050565b6000602082019050611042600083018461101e565b92915050565b60006020828403121561105e5761105d610e85565b5b600061106c84828501610f09565b91505092915050565b60006020828403121561108b5761108a610e85565b5b600061109984828501610ed3565b91505092915050565b600080604083850312156110b9576110b8610e85565b5b60006110c785828601610ed3565b92505060206110d885828601610ed3565b9150509250929050565b7f4e487b7100000000000000000000000000000000000000000000000000000000600052602260045260246000fd5b6000600282049050600182168061112957607f821691505b60208210810361113c5761113b6110e2565b5b50919050565b7f4e487b7100000000000000000000000000000000000000000000000000000000600052601160045260246000fd5b600061117c82610ee8565b915061118783610ee8565b925082820261119581610ee8565b915082820484148315176111ac576111ab611142565b5b5092915050565b7f77726f6e6720616d6f756e742073656e74000000000000000000000000000000600082015250565b60006111e9601183610dde565b91506111f4826111b3565b602082019050919050565b60006020820190508181036000830152611218816111dc565b9050919050565b600061122a82610ee8565b915061123583610ee8565b925082820190508082111561124d5761124c611142565b5b92915050565b7f45524332303a2064656372656173656420616c6c6f77616e63652062656c6f7760008201527f207a65726f000000000000000000000000000000000000000000000000000000602082015250565b60006112af602583610dde565b91506112ba82611253565b604082019050919050565b600060208201905081810360008301526112de816112a2565b9050919050565b7f45524332303a20617070726f76652066726f6d20746865207a65726f2061646460008201527f7265737300000000000000000000000000000000000000000000000000000000602082015250565b6000611341602483610dde565b915061134c826112e5565b604082019050919050565b6000602082019050818103600083015261137081611334565b9050919050565b7f45524332303a20617070726f766520746f20746865207a65726f20616464726560008201527f7373000000000000000000000000000000000000000000000000000000000000602082015250565b60006113d3602283610dde565b91506113de82611377565b604082019050919050565b60006020820190508181036000830152611402816113c6565b9050919050565b7f45524332303a20696e73756666696369656e7420616c6c6f77616e6365000000600082015250565b600061143f601d83610dde565b915061144a82611409565b602082019050919050565b6000602082019050818103600083015261146e81611432565b9050919050565b7f45524332303a207472616e736665722066726f6d20746865207a65726f20616460008201527f6472657373000000000000000000000000000000000000000000000000000000602082015250565b60006114d1602583610dde565b91506114dc82611475565b604082019050919050565b60006020820190508181036000830152611500816114c4565b9050919050565b7f45524332303a207472616e7366657220746f20746865207a65726f206164647260008201527f6573730000000000000000000000000000000000000000000000000000000000602082015250565b6000611563602383610dde565b915061156e82611507565b604082019050919050565b6000602082019050818103600083015261159281611556565b9050919050565b7f45524332303a207472616e7366657220616d6f756e742065786365656473206260008201527f616c616e63650000000000000000000000000000000000000000000000000000602082015250565b60006115f5602683610dde565b915061160082611599565b604082019050919050565b60006020820190508181036000830152611624816115e8565b9050919050565b7f45524332303a206d696e7420746f20746865207a65726f206164647265737300600082015250565b6000611661601f83610dde565b915061166c8261162b565b602082019050919050565b6000602082019050818103600083015261169081611654565b905091905056fea2646970667358221220ee448187f2960351847aaccacff278ae9eadd93c6895a860b2ab7753ec7fbcb064736f6c63430008110033",
  "immutableReferences": {},
  "source": "// SPDX-License-Identifier: MIT\r\npragma solidity ^0.8.4;\r\n\r\nimport \"@openzeppelin/contracts/token/ERC20/ERC20.sol\";\r\n\r\n/// @title a Crypto-Money to buy stickers' packages of world cup\r\n/// @author @mrti259/@saantim/@ovr4ulin\r\n/// @notice You can use this contract to mint FiubaCoins\r\n/// @dev This contract inherits ERC20 interface\r\ncontract FiubaCoin is ERC20 {\r\n    address owner;\r\n    uint256 public mintPrice = 1000000 gwei; \r\n\r\n    constructor() ERC20(\"FiubaCoin\", \"FIU\") {\r\n        owner = msg.sender;\r\n    }\r\n\r\n    /// @notice This function sends the contract's ether to the contract's owner\r\n    /// @dev The contract's owner can not be modified\r\n    function withdraw() public {\r\n        payable(owner).transfer(address(this).balance);\r\n    }\r\n\r\n    /// @notice You can use this function to buy `quantity` of FiubaCoins.\r\n    /// @dev If the user doesn't send the correct amount of ether, then the function returns an errorIf the user doesn't send the correct amount then the function returns an error\r\n    /// @param quantity It's the quantity of FiubaCoins to be minted\r\n    function getFiubaCoin(uint256 quantity) public payable {\r\n        require(quantity * mintPrice == msg.value, \"wrong amount sent\");\r\n        _mint(msg.sender, quantity * 10 ** 18);\r\n    }\r\n}",
  "sourcePath": "D:\\repos\\fiuba-panini\\fiuba-panini\\dapp\\contracts\\FiubaCoins.sol",
  "compiler": {
    "name": "solc",
    "version": "0.8.17+commit.8df45f5f.Emscripten.clang"
  },
  "schemaVersion": "3.4.11",
  "updatedAt": "2022-12-03T04:16:56.998Z",
  "networkType": "ethereum",
  "devdoc": {
    "author": "@mrti259/@saantim/@ovr4ulin",
    "details": "This contract inherits ERC20 interface",
    "kind": "dev",
    "methods": {
      "allowance(address,address)": {
        "details": "See {IERC20-allowance}."
      },
      "approve(address,uint256)": {
        "details": "See {IERC20-approve}. NOTE: If `amount` is the maximum `uint256`, the allowance is not updated on `transferFrom`. This is semantically equivalent to an infinite approval. Requirements: - `spender` cannot be the zero address."
      },
      "balanceOf(address)": {
        "details": "See {IERC20-balanceOf}."
      },
      "decimals()": {
        "details": "Returns the number of decimals used to get its user representation. For example, if `decimals` equals `2`, a balance of `505` tokens should be displayed to a user as `5.05` (`505 / 10 ** 2`). Tokens usually opt for a value of 18, imitating the relationship between Ether and Wei. This is the value {ERC20} uses, unless this function is overridden; NOTE: This information is only used for _display_ purposes: it in no way affects any of the arithmetic of the contract, including {IERC20-balanceOf} and {IERC20-transfer}."
      },
      "decreaseAllowance(address,uint256)": {
        "details": "Atomically decreases the allowance granted to `spender` by the caller. This is an alternative to {approve} that can be used as a mitigation for problems described in {IERC20-approve}. Emits an {Approval} event indicating the updated allowance. Requirements: - `spender` cannot be the zero address. - `spender` must have allowance for the caller of at least `subtractedValue`."
      },
      "getFiubaCoin(uint256)": {
        "details": "If the user doesn't send the correct amount of ether, then the function returns an errorIf the user doesn't send the correct amount then the function returns an error",
        "params": {
          "quantity": "It's the quantity of FiubaCoins to be minted"
        }
      },
      "increaseAllowance(address,uint256)": {
        "details": "Atomically increases the allowance granted to `spender` by the caller. This is an alternative to {approve} that can be used as a mitigation for problems described in {IERC20-approve}. Emits an {Approval} event indicating the updated allowance. Requirements: - `spender` cannot be the zero address."
      },
      "name()": {
        "details": "Returns the name of the token."
      },
      "symbol()": {
        "details": "Returns the symbol of the token, usually a shorter version of the name."
      },
      "totalSupply()": {
        "details": "See {IERC20-totalSupply}."
      },
      "transfer(address,uint256)": {
        "details": "See {IERC20-transfer}. Requirements: - `to` cannot be the zero address. - the caller must have a balance of at least `amount`."
      },
      "transferFrom(address,address,uint256)": {
        "details": "See {IERC20-transferFrom}. Emits an {Approval} event indicating the updated allowance. This is not required by the EIP. See the note at the beginning of {ERC20}. NOTE: Does not update the allowance if the current allowance is the maximum `uint256`. Requirements: - `from` and `to` cannot be the zero address. - `from` must have a balance of at least `amount`. - the caller must have allowance for ``from``'s tokens of at least `amount`."
      },
      "withdraw()": {
        "details": "The contract's owner can not be modified"
      }
    },
    "title": "a Crypto-Money to buy stickers' packages of world cup",
    "version": 1
  },
  "userdoc": {
    "kind": "user",
    "methods": {
      "getFiubaCoin(uint256)": {
        "notice": "You can use this function to buy `quantity` of FiubaCoins."
      },
      "withdraw()": {
        "notice": "This function sends the contract's ether to the contract's owner"
      }
    },
    "notice": "You can use this contract to mint FiubaCoins",
    "version": 1
  }
}